:020000040800F2
:10000000D8170020D500000831300008A9290008C1
:1000100000000000000000000000000000000000E0
:100020000000000000000000000000003134000863
:100030000000000000000000893100087935000848
:10004000E7000008E7000008E7000008E7000008F4
:10005000E7000008E7000008E7000008E7000008E4
:10006000E7000008FD0B00080D0C0008E700000881
:10007000B10A0008E7000008E7000008E7000008F0
:1000800039360008E700000800000000E70000081B
:10009000E7000008E7000008E7000008E7000008A4
:1000A000E7000008E7000008E70000082D3E000810
:1000B000E700000800000000E7000008044885464B
:1000C00000F0B8FC00480047DD450008C046C046C7
:1000D000D81700200448804704480047FEE7FEE7A1
:1000E000FEE7FEE7FEE7FEE7DD350008BD0000089D
:1000F00030B50B46014600202022012409E00D46C0
:10010000D5409D4205D31D469540491B2546954047
:1001100040191546521E002DF1DC30BD70B500248B
:100120002546002801DA01244042002901DA012590
:100130004942FFF7DDFFAC4200D04042002C00D026
:10014000494270BD10B5202A04DB0846203AD04051
:10015000002110BD0B46D340D0402024A21A91406C
:100160000843194610BD03460B439B0703D009E023
:1001700008C9121F08C0042AFAD203E00B780370E2
:10018000401C491C521EF9D27047D2B201E00270E5
:10019000401C491EFBD270470022F6E710B51346FB
:1001A0000A4604461946FFF7F0FF204610BDF8B591
:1001B00002464A40D40F42004B0052085B089A4264
:1001C00002D20246084611464A0023D0C30D4A0017
:1001D000DDB2120EAD1A202D35DA49020126490A88
:1001E000F6058A19002C00D0524220214F1B1146DF
:1001F000B9402A411018C20D9A4221D0002C17D0C4
:10020000012D08DCDA05801AD20F8019D207DBB283
:1002100000F077FBF8BDDA05801A012340001B06C9
:10022000C01880185A428018CA0F1043490007E0CE
:100230004908C2071143DA05801A8019400880185E
:1002400000F057FBF8BD61000122511A001BF7E7CF
:100250000122D2075140AAE70122D2075040A6E767
:10026000024670B54A40D30FDB0740002DD04A004C
:100270002AD0010E140E000212020919400A520A75
:100280008418E50104465443000A120A2E04504320
:10029000A4194219200CC543AA18120C0125AD035C
:1002A000521C521912047F39240400D0521C1043EE
:1002B00001D44000491EC2B20C06C0092018401CDF
:1002C0004008802A02D003E0002070BD40084000B2
:1002D000002900DA0020184370BD70B502464A407C
:1002E000D50F40004A00ED0740085208002814D0FE
:1002F000002A12D0C40DD30D41020120C0055202C4
:10030000490A520AE41A091812187D34914201D39D
:10031000641C00E04900002C01DA002070BD0023BD
:10032000914201D3891A0343400849000028F7D1BC
:1003300000290AD0914202D10121C90705E091426A
:1003400001D2012101E00121C943E005C018401993
:1003500000F0CFFA70BD420005D04200120E5242AA
:100360008A4201DB00207047C90508187047000069
:10037000F0B507460846584087B0C00F04904800C3
:100380000E46590040084908BC1A884105D2384633
:1003900031461E4617460B46024658004008104399
:1003A0004DD0300D039040055900400D490D05908A
:1003B000401A0290402873DA18030121000B090546
:1003C0000843019004980092002806D01146019A33
:1003D00049420020904100910190029840210A1A60
:1003E0000199009800F062FA05460C466B4607CB6F
:1003F00000F06CFAC0197141039A0E0D0023D71753
:1004000056401A467A40164344D0049A002A2DD00A
:10041000029A012A039A15DC1205C01A914101269D
:100420003605001C7141D20F059ED2070093019240
:1004300002962A46234600F0AAFA07B0F0BD3846D5
:100440003146FAE71605234A0F46B218C01AB741DB
:1004500001210905001C4F4100187F411146181861
:100460007941E20F10436D19644113E0E2076D0812
:1004700015436408C2071443039A01261205C01AE3
:1004800091413605001C7141CE07400830434908B0
:10049000C01851412A46234600F06CFACDE7FFE729
:1004A000049801224000C117121A00238B410498BE
:1004B0003146C417381AA141EEE730B40124E407ED
:1004C000634030BC54E730B40124E407614030BCE1
:1004D0004EE700000000E0FFF0B51FB488B00B99B4
:1004E0000998002448400999C00F4900490809911A
:1004F000C0070B990090490049080B910999089889
:10050000A64608431CD00B990A98084318D00998AE
:1005100001244000420D4800410D099824050003C4
:10052000000B204309900B980003000B20430B9015
:1005300050181C494018002201901446104605E04E
:10054000002001460DB0F0BD032801DA034600E0AB
:1005500003239C46C11A0AAE0AE05F0008ADED5BBA
:100560004F00F75B7D430027AA187C41491C5B1EA6
:100570006145F2DD410004AB5A522104120C0A43DA
:10058000240C401C0828DFDB01980290009970467B
:1005900001910090059B049A0799069800F0F7F9DD
:1005A000D0E700000DFCFFFFF0B50C465C4085B0C5
:1005B000E40FE40703944C000026640859009446B5
:1005C000490802460296224321D062460A431ED0C1
:1005D0006200570D4A000E032303550D0124024605
:1005E0002C492405781B1B0B360B4018234326434C
:1005F000614600901C46501AB44103D30098401C39
:10060000009002E0921800985B41002803DA002075
:10061000014605B0F0BD00200121090507468646C8
:1006200011E064461D46141BB54106D36546521BB6
:10063000B341744607430C43A646CD07400849081A
:10064000284392185B4105460D43EAD110461843F2
:1006500013D06046194650407140084306D06046AA
:10066000101AB34106D20122002306E00022012322
:10067000DB0702E00122D2435310009874460105C3
:10068000381C6141029C039D0019694100F072F918
:10069000BFE70000FD030000C217C10F504010B5B6
:1006A0004018CA079623002100F02BF910BD10B5A1
:1006B00000229623114600F024F910BD0EB505491D
:1006C0000291002100910A460B46019100F05FF96A
:1006D00003B000BD330400000EB5054A02920022AB
:1006E00000921346019200F052F903B000BD0000E1
:1006F00033040000C20F410040020123400ADB0521
:10070000D207090EC0187F2901DA00207047962908
:1007100003DC9623591AC84001E096398840002A24
:10072000F4D040427047410040020122400AD20505
:10073000090E80187F2901DA00207047962903DC12
:100740009622511AC8407047963988407047000079
:1007500070B5CD0F4A0009030123090B1B0519438E
:100760000B4BED070024520D9A4201DA002070BDB8
:10077000074B34339A4203DC9A1AFFF7E3FC02E09A
:100780000449511888402C43F1D0404270BD00000C
:10079000FF030000CDFBFFFF4A0009030123090B03
:1007A0001B051943094B10B5520D9A4201DA00207E
:1007B00010BD064B34339A4203DC9A1AFFF7C2FC91
:1007C00010BD03495118884010BD0000FF03000010
:1007D000CDFBFFFFC20FD207400040080BD0C10D78
:1007E0000723DB01C91840020905400A1143C2086A
:1007F00040071143704700200146704710B500299B
:1008000004DB0124E40740428C412146002B04DB39
:100810001C460123DB075242A3418B4200D1824296
:1008200010BD000010B5002904DB0124E40740429C
:100830008C412146002B04DB1C460123DB0752427E
:10084000A341994200D1904210BD0000CB0FDB07BD
:10085000490010B5490802460A4307D00A0D07248B
:100860000903E401090B121B002A01DC002010BD62
:10087000C900440F0C43C100E018D205801800F0F5
:1008800038F810BD0122D207002800DB101A002919
:1008900000DB511A814270470122D207002800DB99
:1008A000101A002900DB511A8842704710B5202A1F
:1008B00004DB0146203A9140002010BD91402023E6
:1008C0009C1A0346E3401943904010BD10B5202AFE
:1008D00006DBCB170846203A1041C1170B4306E050
:1008E0000B461341D0402024A21A914008431946D8
:1008F00010BD002904DA401C490001D14008400025
:10090000704770B40024050C05D11024000402D1F6
:10091000002921D01124050E01D100020834050F51
:1009200001D10001241D850F01D18000A41C0028E5
:1009300001DB4000641C002908D020252E1B0D4639
:10094000F540A14000D001212943084301061B1BAB
:10095000000ADB1D02D5002070BC7047DB051818AB
:1009600080180029F8DA401C4900F5D170BC400815
:100970004000704710B5002B08DA0024401C61418C
:1009800092185B411A4301D14008400010BDF0B5F8
:100990001FB482B005460C0003D0084603F04EFA9F
:1009A00002E003F04BFA2030024600902146284630
:1009B000FFF77CFF049B059A04460F46184311433A
:1009C000084314D0184610431BD0009840210A1A3F
:1009D00018460599FFF7B6FB05460E46009A05999D
:1009E0000498FFF763FF084305D0012004E0204688
:1009F000394607B0F0BD0020C11705430E432C4314
:100A0000374300990E986305401A7905E40A0022DD
:100A10000C43FD0A0A3002D500200146E9E7010532
:100A2000101969410C9C0D9D00196941FFF7A2FF47
:100A3000DFE70000064C0125064E05E0E36807CC21
:100A40002B430C3C98471034B442F7D3FFF73AFBE2
:100A5000684C0008884C000870B58C180578401C5C
:100A60006B075B0F01D10378401C2A1106D1027875
:100A7000401C03E006780E70401C491C5B1EF9D137
:100A80002B0705D40023521E0DD40B70491CFAE726
:100A90000378401CCB1A921C03E01D780D70491C92
:100AA0005B1C521EF9D5A142D8D3002070BD0000B6
:100AB00010B5024800F092FA10BD0000CC110020E1
:100AC00010B50146406A426C50231A420AD1416C6B
:100AD00001225202114341640168CA681205920F53
:100AE00005D020E0C06B026B0846904710BD026A3B
:100AF000002A18D10A68120715D58A6853070122FF
:100B0000002B09DB4B680C24A3434B60416C1302A0
:100B100099431143416406E0416C20231943416429
:100B2000816C1143816400F053FA10BD10B5406A26
:100B3000416C402211434164816C04221143816461
:100B400000F04BFA10BD10B5406A00F045FA10BD38
:100B5000F8B5044600200090206881688907890F55
:100B6000012905D10168C9072CD1C168090429D41C
:100B70008168154A102611400125002915D1816888
:100B800029438160124811490068FFF7B1FA00E07B
:100B9000401E00900028FBD100F076FD07460CE0D7
:100BA00000F072FDC01B022807D9606C30436064FE
:100BB000A06C2843A0640120F8BD20680068C043F1
:100BC000C007EDD10020F8BD1700008040420F00A3
:100BD000F802002010B507498868C968FFF7B8FD1A
:100BE00001460E2002F00CFC034801880F2002F0A1
:100BF00007FC10BDF00C00208002002010B5024858
:100C000000F0D4FB10BD00001812002010B50348FE
:100C100000F0CCFB024800F0C9FB10BD4C130020D3
:100C20009013002010B504460068054940181421AF
:100C3000FFF75EFA800020640248E06310BD000008
:100C4000F8FFFDBF0000024030B5056C0124AC4048
:100C5000C56B6C60046863604368102B036803D045
:100C600099600068C26030BD9A600068C16030BDA4
:100C7000F8B5074601F0F0FE0025002802D02E4608
:100C800060C7F8BD0E4C0F48616801290CD0491EA1
:100C90006160A268D1004558081846686521501C5B
:100CA000FFF73CFAA160EBE76560A168C900455811
:100CB000081846680020C043A060E060E0E700003C
:100CC000A8020020780D002000B50E488178032985
:100CD00016D18168491C81600A2904D100218160F4
:100CE0008188491C8180084A81881181D2888A4282
:100CF00001D8022100E003210170012001F07EFEF5
:100D000000BD0000D4020020C0110020F8B5164C30
:100D100001250E460746657003F0F2FD002815D147
:100D200001F0A4FE012814D001F096FE0F4D012819
:100D300011D0E0686521401CFFF7F0F9E1606068C0
:100D4000401C6060C8002F50401946600020607051
:100D5000F8BD2570FAE70020A060E0606068401CE4
:100D600060602F606E60F1E7A8020020780D00201F
:100D700070470000F8B5194C194EE0782146401C28
:100D8000C0B2E0708978022805D0002805D000297B
:100D900015D000251DE00020E07000290FD00025AF
:100DA0000827FF4308E06800305E0146093107D09C
:100DB000012102F025FB6D1CA0788542F3DBF8BD14
:100DC00021783846F5E76800305E002102F018FB14
:100DD0006D1CA0788542F6DBF8BD00004C020020B7
:100DE0006E0C002010B50A220149FFF7BCF910BDB6
:100DF000C0110020F8B50546044640352878002685
:100E0000012808D001202870206881688907890F8F
:100E1000012908D101E00220F8BD0168C90738D1D5
:100E2000C168090435D4616CFF220132914302226A
:100E300011436164C1688907890F0091C1688908FD
:100E40008900C1602068816892071143816000F0C9
:100E50001BFC07460EE000F017FCC01B022809D956
:100E6000606C0221884310210843606400202870D0
:100E70000120F8BD206880680028ECDB2068C1688C
:100E8000009A1143C160606C80088000401C60645F
:100E900004E0606C20210843606401260020287073
:100EA0003046F8BDF8B50025044640340095227858
:100EB000012A3BD00122227003689E68760776D40F
:100EC0003F4F4E68BE4254D09E6A0F78BA401643D8
:100ED0009E620123826B1B079A421FD0012A1DD0FC
:100EE000022A1BD0032A19D0042A17D0052A15D0AC
:100EF000062A13D0072A11D002688B685669760734
:100F0000760FB3420AD05369DB08DB0053610068F7
:100F100042690B7A5B075B0F1A434261086810282D
:100F200006D0112804D0122802D045E00220F8BDD6
:100F3000244A9368102809D011280AD001200006FD
:100F4000034393600868102806D035E00120C005EF
:100F5000F6E701208005F3E71C481B490068FFF70E
:100F6000C7F80A21484300E0401E00900028FBD14A
:100F700022E0986A0E78B240904398620868102880
:100F800003D0112801D0122816D10E498A681028E2
:100F900007D0112808D00120000682438A600BE0A8
:100FA00005E00120C005F8E701208005F5E7416C68
:100FB0002022114341640125002020702846F8BDFD
:100FC000011000000027014040420F00F8020020FD
:100FD00000B503F067FB00BD7047704770B504466D
:100FE00000680168490702D54168490705D40168CE
:100FF000090730D5416809072DD5616CC90604D4AD
:10100000616C0122520211436164C1680C2509051B
:10101000890F00291AD1216A002917D1016809070F
:1010200014D581684A070121002A08DB4268AA43D7
:101030004260606C0A0290430843606406E0606CA2
:10104000202210436064A06C0843A0642046FFF790
:10105000BFFF206805602068016809060DD540685B
:1010600000060AD5606C012109040843606420462B
:1010700000F0D6F821688020086020680168C90661
:1010800013D54168C90610D5616B1025012902D01E
:10109000C168C90707D0A16C02221143A164056091
:1010A0002046FFF79AFF2068056070BDF8B500255F
:1010B0000446002803D0606C002802D008E001201C
:1010C000F8BD0020A06440210855204600F0AAF891
:1010D000606C1022C006002870DB20688168490718
:1010E0006CD4616C130199430223194361648168D4
:1010F0008907890F012905D10168C9070FD1C16886
:1011000009040CD4C16818239943A3681943C1602A
:1011100020680169636889008908194301612068B2
:10112000C1683D4B1940C160A069E1698003C903F2
:101130000843216A4B031843636B012B02D0012340
:101140001B0300E000231843E36818432369022BC4
:1011500009D000231843236B666A5B001843012300
:10116000012E02D00AE00423F4E7002927D0616CA5
:10117000202631436164A16C1943A164A16A0E4623
:10118000FF3EC23E02D0E66A314308432168CE6882
:101190000643CE600126A16B3607B14213D0012968
:1011A00011D002290FD003290DD004290BD0052915
:1011B00009D0062907D0072905D010E028E0012131
:1011C00009040843DAE721684E69F608F6004E6123
:1011D00021684E69278F7F077F0F3E434E6121684C
:1011E000C9680E4E3140814207D10020A064606C76
:1011F00080088000401C606408E0606C0221884325
:1012000010436064A06C1843A06401252846F8BD13
:10121000606C10436064F8E71902FEFFE7FF3F834C
:101220007047000070B586B0054614216846FEF789
:10123000B3FF1F492868884237D11E498A69401583
:1012400002438A618A69024005924A698002024328
:101250004A6149690026014005910720009003205A
:10126000019069460296144800F05EF91348144C48
:1012700041C48020266060604000A0608000E06083
:101280002020666120610E48083C00F0DDF800284F
:1012900001D0FFF76DFDEC63002202210C20656296
:1012A00000F040FA0C2000F033FA06B070BD0000E8
:1012B00000240140001002400008004808000240DD
:1012C00018120020F7B50446006800258068400722
:1012D0003DD426464036307801280AD001273770A1
:1012E000E069012807D02046FFF732FC050002D054
:1012F0002EE00220FEBD606C16490840FF2101313E
:10130000084360640020A0643070E16B124888627A
:10131000E16B1248C862E16B1148086321681C2028
:101320000860206841681022114341602068C1684C
:101330003943C1602168E06B4031029B019A00F0A3
:10134000AFF82068816804221143816000E0022523
:101350002846FEBDFEF1FFFFC10A0008470B00084A
:101360002D0B000870B50024014620314A78022A6E
:1013700003D004218163012416E0026813680E255E
:10138000AB431360026813685B085B0013600122C3
:10139000056C1346AB40C56B6B604A7000220A7047
:1013A000416B002900D08847204670BDF0B4C16B66
:1013B0000D6801680C680422066C1346B3402B428A
:1013C0000DD063070BD50B689B0602D40B689343C3
:1013D0000B60016C8A40C16B4A60C16A19E0022748
:1013E000B74002462F4001232032002F15D0A70717
:1013F00013D50C68A40604D40C680A25AC430C6011
:101400005370036C02219940C36B59600021117025
:10141000816A002916D0F0BC08470827B7402F4240
:1014200010D024070ED50C680E25AC430C60046C5C
:101430001946A140C46B6160836353700021117031
:10144000016BE6E7F0BC704770B5040024D00220C1
:10145000214620310D464870226811680F48A36864
:101460000140606826691843E368334318436369A1
:101470001843A3691843E3691843084310602046E2
:10148000FFF7D0FB0020A062E06220636063A063EE
:1014900001216970287070BD012070BD0FC0FFFF71
:1014A000F8B504468C46203001780025012909D082
:1014B0000126067041780027012905D00770022512
:1014C0002846F8BD0220F8BD02214170A7632068BC
:1014D000016849084900016061462046FFF7B4FBF6
:1014E000E06A00282068016802D00E22114306E05D
:1014F0000A221143016020680168042291430160BF
:101500002068016831430160DAE731B500F0BCF8CA
:10151000009C0546601C00D0641C00F0B5F8401B20
:10152000A042FAD338BD0000F8B500238DE00124B5
:101530009C40A44622407DD04C68022C01D0122C45
:101540000CD1DC08A40027183C6A5D07ED0E0F26BD
:10155000AE40B4430E69AE4026433E6205685E006D
:101560000324B4400F79A543BF07BF0FB7402F43F3
:1015700007604D68012D05D0022D03D0112D01D03B
:10158000122D0ED18568CF68A543B7402F438760E1
:1015900047686546AF430D79ED06ED0F9D403D432D
:1015A0004560C568A5438C68B4402C43C4604C6852
:1015B000E40049D5284CA56901263543A561A469F5
:1015C0009D0834400094254CAD002F19BC689D0740
:1015D0002E0F0F25B540AC430925ED06A84201D1D9
:1015E00000250FE01E4DA84201D101250AE01D4D46
:1015F000A84201D1022505E01B4DA84201D10325D7
:1016000000E00525B5402543BD60184C25684E68AF
:101610009543F60300D51543256065684E689543EC
:10162000B60300D515436560A5684E689543F6027C
:1016300002D500E008E01543A560E5684E689543D3
:10164000B60200D51543E5605B1C0A681446DC4011
:1016500000D06CE7F8BD000000100240000001401F
:101660000004004800080048000C00480004014045
:101670000069084000D001207047002A01D0816134
:1016800070478162704700000148006870470000A1
:10169000F402002002480168491C01607047000004
:1016A000F402002010B506480168102211430160C1
:1016B000002000F007F800F017F8002010BD00002F
:1016C0000020024010B5044600F042F97D21C90017
:1016D000FEF70EFD00F038FB00222146501E00F000
:1016E00021F8002010BD000008B5084881690122DA
:1016F00011438161816911400091C26901040A436B
:10170000C261C0690840009008BD0000001002409E
:10171000C106C90E012088400149086070470000D9
:1017200000E100E010B501F085FC10BDF8B50546FC
:101730000068394CC00352D5E0690026C00007D4C8
:10174000E16920040143E161E16901400126009162
:1017500032480168C90510D401688215114301603F
:10176000FFF792FF074604E0FFF78EFFC01B6428D7
:1017700024D82A480068C005F6D5206A03273F020E
:10178000384020D06968394081421CD0206A226AE2
:10179000B843012109040A432262226A8A43226271
:1017A0002062C0070FD0FFF76FFF009008E0FFF73F
:1017B0006BFF0099411A1A48814201D90320F8BDF4
:1017C000206A8007F3D5206A6968B843084320621D
:1017D000002E04D0E169012000078143E1612878EF
:1017E000C00705D0206BA9688008800008432063EB
:1017F0002878800605D5206B10218843E9680843C6
:1018000020632888400505D5206B4021884329693D
:10181000084320630020F8BD001002400070004023
:1018200088130000F8B5054644480E460068C00716
:10183000C00FB0420AD2414801684908490031430B
:1018400001600068C007C00FB0425CD128783C4CF2
:10185000800705D56068F0218843A9680843606067
:101860002878C0073FD06868012813D02168022873
:1018700013D08907002946DA616889088900014385
:101880006160FFF701FF6968074601290DD0022951
:1018900017D024E021688903ECE78901EAE7FFF724
:1018A000F3FEC11B2748814217D860680007800FEC
:1018B0000128F4D117E0FFF7E7FEC11B2148814260
:1018C0000BD860680007800F0228F4D10BE0FFF707
:1018D000DBFEC11B1B48814201D90320F8BD6068B3
:1018E0000007800FF3D115480168C907C90FB1423D
:1018F0000BD9016849084900314301600068C007FD
:10190000C00FB04201D00120F8BD2878400706D5AD
:101910006068072109028843E9680843606000F0B5
:101920002DF86168084A0906090F515CC84007494B
:1019300008600020FFF7C6FE0020F8BD002002402E
:101940000010024088130000504C0008F8020020EC
:101950000148006870470000F8020020044805496B
:1019600000684968044A4905490F515CC8407047FE
:10197000F802002000100240604C000810B512A3CD
:101980000FCB88B06C460FC413A30FCB0FC41649FE
:101990004A680C20134603401448042B0FD0082B30
:1019A0000DD193021B0F6C46E45CC96A04AB0907B6
:1019B000090F595CD20304D5FEF79AFB604308B0C7
:1019C00010BD0B486043FAE7020304050607080947
:1019D0000A0B0C0D0E0F1010010203040506070878
:1019E000090A0B0C0D0E0F100010024000127A00B5
:1019F00000093D00FEB504460078D04DC00747D031
:101A000068680007800F012807D068680007800F0A
:101A1000022809D16868C00306D52868800337D535
:101A2000606800287ED033E0012062680004012A4B
:101A300011D08100002A01D0052A10D02A688243E3
:101A40002A602868884328606068002814D0FFF75F
:101A50001BFE06460CE0296801432960F4E72A686A
:101A60000A432A60F7E7FFF70FFE801B64286FD850
:101A700028688003F7D50BE0FFF706FE064604E072
:101A8000FFF702FE801B6428F1D828688003F7D492
:101A900020780126800700283BDA68680007800F5D
:101AA00007D068680007800F022809D16868C00362
:101AB00006D42868800715D5E068012832D111E0E6
:101AC000E0680028286815D030432860FFF7DCFD67
:101AD000074604E0FFF7D8FDC01B0228C7D82868D6
:101AE0008007F7D52868F82188432169C900084391
:101AF00028600EE0400840002860FFF7C5FD07465B
:101B000004E0FFF7C1FDC01B0228B0D82868800799
:101B1000F7D42078000724D5E0690028686A10D03F
:101B2000304300E008E16862FFF7AEFD074604E0DD
:101B3000FFF7AAFDC01B022899D8686A8007F7D56D
:101B40000FE0400840006862FFF79EFD074605E091
:101B50009DE0FFF799FDC01B022888D8686A8007BE
:101B6000F7D4207804274007002860DA002001908D
:101B7000E869C00008D4E969B8060143E961E96988
:101B800001400120009101906D480168C90511D400
:101B90000168821511430160FFF776FD009005E0B2
:101BA000FFF772FD0099401A642870D864480068F5
:101BB000C005F5D5A06801280AD0002801D0052865
:101BC00010D0286A400840002862286AB84301E023
:101BD000286A30432862A068002812D0FFF754FD1D
:101BE00000900AE0286A38432862F1E7FFF74CFDCD
:101BF0000099411A5348814249D8286A8007F5D58F
:101C00000DE0FFF741FD009006E0FFF73DFD009974
:101C1000411A4C4881423AD8286A8007F5D4019885
:101C2000002804D0E969012000078143E961207898
:101C3000C00635D5606901280CD0401D686B23D0E3
:101C400038436863686B400840006863FFF71CFD19
:101C5000064622E0686B38436863686B304368630C
:101C6000FFF712FD064604E0FFF70EFD801B022879
:101C70005BD8686B8007F7D5686BF8218843A1694A
:101C8000C900084368630BE0B8436863F4E74CE0BD
:101C9000FFF7FAFC801B022847D8686B8007F7D44F
:101CA000206A002846D069680907890F022943D0B5
:101CB000012636060228286805D0B0432860FFF7C1
:101CC000E3FC044633E0B0432860FFF7DDFC074641
:101CD00004E0FFF7D9FCC01B022826D82868800141
:101CE000F7D4E86AE16A000900010843E862616A22
:101CF000A06A084369683D22120491430843686062
:101D0000286830432860FFF7BFFC044604E0FFF773
:101D1000BBFC001B022808D828688001F7D509E021
:101D2000FFF7B2FC001B022801D90320FEBD286882
:101D30008001F5D40020FEBD0120FEBD0010024050
:101D40000070004088130000094910B5401E884209
:101D500001D9012010BD074C60610321081F01F06B
:101D600069F90020A06107202061002010BD00005B
:101D7000FFFFFF0000E000E07047704770B50346CA
:101D800020331A7F012A27D001241C7702225A7798
:101D90000326CA683602B2438E6800253243A60283
:101DA000B2434E6800683243E602B2430E683243E3
:101DB0002603B2430E6932436603B2434E69896912
:101DC0003243A603B2430A43E603B2430A434264E2
:101DD0005C771D77002070BD022070BD70B5024693
:101DE0002032137F012B1BD0012313770224547759
:101DF000046865687026B5436560046865680E68A8
:101E0000354365600468A5688026B543A560006811
:101E1000846849680C43846053770020107770BD54
:101E2000022070BD70B5040005D025462035687FBE
:101E3000002802D006E0012070BD0020287720464F
:101E400000F00AF802206877211D206801F0FCFBF1
:101E500001206877002070BD08B5104A016810485D
:101E6000914207D18269C1140A43826180690840A6
:101E7000009008BD0B4A9142FBD1C26902210A437E
:101E8000C261C06900220840009011461020FFF78F
:101E900049FC1020FFF73CFC08BD0000002C01406D
:101EA00000100240000400400268D36801210B4387
:101EB000D360006802680A43026000207047F8B5EA
:101EC000054604462035287F012817D001272F77A3
:101ED00002206877226890687726FF23B0431B02B0
:101EE000984390600868502837D00EDC202857D0DF
:101EF00006DC00284ED0102840D14EE00220F8BD6C
:101F0000302850D0402839D13CE060282DD07028AE
:101F100017D001221203801A0ED090422ED1CB6826
:101F20004A688968206801F0E4FB20688168012222
:101F300092031143816021E020688168C908C900CB
:101F4000F8E7CB684A688968206801F0D2FB21680D
:101F50008868B0433043886010E0CA6849682068E8
:101F600001F0D6FC5021206806E0CA684968206864
:101F700001F0DFFC6021206801F0C6FB6F770020D4
:101F80002877F8BDCA684968206801F0C1FC402183
:101F90002068F1E700212068EEE710212068EBE7D8
:101FA00020212068E8E730212068E5E7704770B518
:101FB0000446006801690025C9438907002915DB2B
:101FC000C168C943890711D4E91E01610120207746
:101FD000206880698007204602D0FFF7E7FF04E011
:101FE00000F0BEF8204600F03FF92577206801692F
:101FF000C943490717D4C168C943490713D4042109
:10200000C943016102202077206880698005800F24
:10201000204602D0FFF7CAFF04E000F0A1F82046F6
:1020200000F022F9257720680169C943090716D411
:10203000C168C943090712D40821C94301610420BA
:1020400020772068C0698007204602D0FFF7AEFFE6
:1020500004E000F085F8204600F006F925772068B6
:102060000169C943C90617D4C168C943C90613D455
:102070001021C9430161082020772068C0698005CC
:10208000800F204602D0FFF791FF04E000F068F8CF
:10209000204600F0E9F8257720680169C943C9079F
:1020A00008D1C168C943C90704D1891E016120460E
:1020B00000F03EF920680169C943090609D4C168E6
:1020C000C943090605D48021C94301612046FFF7B1
:1020D00053FE20680169C943490609D4C168C94350
:1020E000490605D44021C9430161204600F056F954
:1020F00020680169C943890609D4C168C9438906B2
:1021000005D42021C94301612046FFF736FE70BD8A
:1021100010B586B0044614216846FEF73DF80E4916
:102120002068884215D10D484269012149040A43BB
:102130004261406908400590481200900020022149
:10214000029003900191049109206946C006FFF7AF
:10215000EBF906B010BD0000002C01400010024059
:102160007047F8B5064604462036307F0D460128F4
:102170000DD001203077022070770427002A08D084
:10218000042A16D0082A2AD00C2A4DD137E0022082
:10219000F8BD206801F0C0FA206881690822114367
:1021A000816120688169B9438161206881692A69F8
:1021B00012E0206801F0F4FA206882690121C90266
:1021C0000A43826120688169012292029143816100
:1021D000206881692A6912021143816124E0206824
:1021E00001F01EFB2068C26908210A43C261206811
:1021F000C169B943C1612068C1692A6912E02068D8
:1022000001F050FB2068C1690122D2021143C16173
:102210002068C269012189028A43C2612068C169BC
:102220002A6912021143C1610120707700203077C2
:10223000F8BD70B5040005D025462035687F00281C
:1022400002D006E0012070BD00202877204600F073
:102250000AF802206877211D206801F0F5F90120B5
:102260006877002070BD70477047000010B50446C5
:102270000068012201F032FA0C482168814208D03E
:102280000B48814205D00B48814202D00A48814266
:1022900004D1486C0122D2031043486420680168CD
:1022A000012211430160002010BD0000002C0140FC
:1022B00000400140004401400048014030B5044660
:1022C0000068002201F00AFA154A144821689310A8
:1022D000814208D01348814205D01348814202D080
:1022E000124881420AD1086A104207D1086A18428E
:1022F00004D1486C0125ED03A84348642068016AB5
:10230000114206D1016A194203D101684908490006
:102310000160012020346077002030BD002C014096
:1023200011110000004001400044014000480140FC
:1023300070B500681649884228D1164CE068401CE8
:10234000E0600A21E068FDF7D3FE0125002900D1F5
:1023500065701E21E068FDF7CBFE002900D1A57055
:102360006421E068FDF7C4FE002900D1E5707D21FD
:10237000C900E068FDF7BCFE002900D12571E068C6
:102380000549884202D125700020E06070BD000040
:1023900000040040B8020020881300007047704716
:1023A00070470000F8B503680446D8691968050746
:1023B0002D0F07D1820605D58A0603D5204601F0E8
:1023C000FBFBF8BD9A68002D64D0D507ED0FFF2602
:1023D00021360E402E435DD0C60706D0CE0504D56B
:1023E00001261E62E36E3343E36687070223042659
:1023F000002F06DAD70704D027683B62E76E374321
:10240000E766470706D5D20704D022681662E26E57
:102410001A43E266020709D520220A402A4305D062
:10242000236808221A62E36E1343E366E26E002A11
:10243000C7D0800604D5880602D5204601F0BCFB33
:10244000E06E000703D42068806840061CD5204653
:1024500001F08DFB20688168490611D58168402212
:1024600091438160606E00280AD01A494163606E12
:10247000FEF778FF0028A4D0606E416B8847F8BD56
:102480002046FFF78DFFF8BD2046FFF789FF0020AB
:10249000E066F8BDC5020DD552020BD5012000053E
:1024A0001862202120466030417281722046FFF779
:1024B00076FFF8BD020605D50A0603D5204601F0D1
:1024C00051FCF8BD4006FCD54806FAD5204601F07F
:1024D0005DFBF8BD8D3A000870B5040005D02546B7
:1024E0006035687A002802D006E0012070BD002027
:1024F0002872204600F026F82420687220680168BF
:10250000490849000160204601F094FB0128EDD004
:10251000606A002802D0204601F01EFA2068416857
:102520000922D20291434160206881682A229143A6
:10253000816020680168012211430160204601F09A
:1025400071FA70BDF0B587B0064614216846FDF7F4
:1025500023FE2B49306888424FD12A4882690121E5
:1025600089030A43826182690A400592426909012E
:102570000A4342614069002408400590C020009051
:1025800002200190032003900294694604941E489F
:10259000FEF7CAFF1E4D1D48286010208027291D08
:1025A00091C12C616C61AC612846EC61FEF74CFF77
:1025B000002801D0FEF7DCFB35666E621348144D2F
:1025C0001430443511C52C60AC60EC606F60202085
:1025D0006C61286128460838083DFEF735FF002861
:1025E00001D0FEF7C5FB7566002211461B206E6206
:1025F000FFF798F81B20FFF78BF807B0F0BD00003D
:102600000038014000100240000400481C00024055
:102610004C130020F8B5054604466035A87A2028FA
:1026200041D100290BD0002A09D00123A0681B0347
:10263000984206D12069002803D1C80701D00120A3
:10264000F8BD287A01282ED0012028725820616513
:1026500002530026E6662220A872616E1348886243
:10266000616E1348C862616E12480863606E13465B
:102670004663676D21683A462431606EFEF710FFAD
:102680002E7220680168FF22013211430160206828
:1026900081680122114381602068816840221143D2
:1026A00081600020F8BD0220F8BD0000EB3A000870
:1026B0002B3B0008A13A000830B51748427817496B
:1026C000C379CA54027A521C0272C279521CC27176
:1026D000047901220023002C447805D08471037111
:1026E0004479A52C03D005E044710271F8E785799F
:1026F0005A2D04D08579A52D09D15A2C07D1022451
:10270000C471A5250D705A254D7004728370C1796E
:10271000092900D3027030BD10020020CC0A00202D
:1027200070470000F8B5054604466035687A2028F1
:102730003BD100290BD0002A09D00123A0681B033C
:10274000984206D12069002803D1C80701D0012092
:10275000F8BD287A012828D0012028722046403070
:10276000E164028242820026E66621206872216EC0
:102770000F488862216E0F48C862216E0E480863B8
:10278000206E134646632768E16C3A462832206E75
:10279000FEF786FE2168402008622E72206881685C
:1027A0008022114381600020F8BD0220F8BD0000A6
:1027B000353B0008653B0008A13A000870477047A8
:1027C000F8B5654F654B394600200839644D1A68E5
:1027D00001248600BE59964207D10E5C002E1FD000
:1027E00000260E545F4E2C703470401C0828F0DB1D
:1027F0005D4F00265948314600682431884211D186
:1028000081B2388880B201F039FD0C21574A7143FA
:1028100050525748711C027891420DDD01700BE057
:102820000126DEE731464831884205D10C214F4A66
:102830007143388889184880761C242EDADB474893
:102840004549026800260C394A48232A47D016DC3D
:102850000C2A32D008DC092A4DD00A2A47D00B2A8C
:1028600021D1454804701BE0132A70D0202A59D08A
:10287000222A18D1396801292FD0042133E0FF23FF
:102880000233D01A9A4221D00EDC912A55D0922AD6
:1028900059D0942A07D12878002804D137480670E7
:1028A0004C7000F0E9FBF8BD012811D0022847D098
:1028B0001828F8D1387832494BE02878012802D11D
:1028C0004C7000F0D9FB2F48067004E02D480CE056
:1028D0002C49022008702E70F8BD032103E03968EE
:1028E000012902D002210170F5E70470F3E72649BF
:1028F000388808800AE009203968C006234D01297C
:1029000007D000221021FEF7B8FE2E701548047083
:10291000F8BD01221021FEF7B0FE6420FEF7F5FDA0
:102920002C70F3E739681A48012901D00670F8BD08
:102930000470184802F0B6F8F8BD3878164908E077
:102940003878164905E03878154902E0FFE738780D
:1029500014490870F8BD0000580200201C02002035
:102960009F0100200802002020020020FC0200201D
:102970009D0100209C010020000000209E010020FD
:10298000A3010020A40100200A0200200902002067
:10299000CD020020AF040000990100209A01002020
:1029A0009B010020CC020020FEE70000F8B5114D8D
:1029B00000240F4E2F460837285D012812D0A000B2
:1029C0003058002100F01CFD285D3855641C082C8F
:1029D000F2DB09480088002808D00121092000F016
:1029E0000FFDF8BDA00030580121EBE70021F5E70D
:1029F00058020020080000200C02002010B51449E5
:102A0000144A0B78D468002818D0012815D1907882
:102A1000032812D1107802280FD10020908008815D
:102A20005B1CD8B208708A7890420DD80C225043B3
:102A3000225C0A7100194088C88010BD0C204343F5
:102A4000E05C08711819F6E700F052FD10BD0000B7
:102A5000C0110020D402002003484068002801D0A3
:102A60000020704701207047A802002003484068FA
:102A7000652801D00020704701207047A80200207F
:102A8000F0B589B0002000904D48017801297CD133
:102A9000002101704B4FC66A856A0C464948E10027
:102AA0001838411803C9FDF717FE2A463346FDF7CB
:102AB0007BFDFDF771FEA100641C7850032CEDDB5B
:102AC0004048414A8088414983B20C2001F0FEF918
:102AD0003B4D22356880092801D8002068800024F9
:102AE00080B2FDF7EBFD02910190394AE300D31863
:102AF0000CCB0299FDF758FD064636480F46005D9F
:102B0000FDF7DCFD32463B46FDF7E6FCFDF79EFE99
:102B10002C49A2003431885001460098FDF747FB4C
:102B2000641C0090082C01DA0198DEE7254E2A4A41
:102B300030892A4983B20C2001F0C8F9A8802848BE
:102B40000088FDF7BBFD0022264BFDF72DFD024658
:102B50000B4625482549FDF727FDFDF777FE184C64
:102B600007462349A061FDF77BFBFDF7DCFD00066E
:102B7000000E11D06888FDF79AFD3946FDF7ADFBD0
:102B8000FDF7D1FD80B2288000E016E0FDF78FFD53
:102B90000099FDF70CFB02E0002028800098FDF76B
:102BA000C2FD608130890C4A83B20C490C2001F0CF
:102BB0008DF9608101206070A07009B0F0BD000047
:102BC00078020020E00C002018000020780000208F
:102BD000C80100200800002038010020D800002093
:102BE0000C02002000408F409A99999999990B40C6
:102BF0000000C84270B5374C20780025012844D128
:102C00002570E088401CE08001F054FEFFF7CEFE06
:102C100001F068FE0100304803D1304909880029DD
:102C200005D001221021FEF728FD25810CE0218925
:102C30002D22491C89B212012181914204D12581A2
:102C400000221021FEF719FDFEF794F8E088032119
:102C50000646FDF74DFA002901D101202061F00759
:102C60000BD1FDF7B7FF1E48007801F08BFB1D4824
:102C70000078012801D101F0D5FB00F047FCE08885
:102C80004B210901884200D1E5802079012804D137
:102C90002571FEF719F801F025FDE078012804D12F
:102CA000E57001F0C5FC01F047FAA078012803D1D6
:102CB000A57001F065FE65716078012809D1657025
:102CC00001F0F6FE084C2078012802D101F0B8FA94
:102CD000257070BDB8020020000800480C020020DA
:102CE000CC020020080200207A0200200EB500214C
:102CF0002148009101911F4A0291026052054260F1
:102D00008160012208230C300EC0016041608160A7
:102D1000C160C021016182619102C26141611838C4
:102D2000FEF7C4F9002801D0FEF722F80A2000902F
:102D30000120000301900620029069460E48FEF72C
:102D4000B1F8002801D0FEF713F80B200090694677
:102D50000948FEF7A7F8002801D0FEF709F80C2073
:102D6000009069460448FEF79DF8002801D0FDF761
:102D7000FFFF0EBD00240140CC11002008B50C4817
:102D800041690122114341614069022110400090D4
:102D900000220920FEF7C6FC0920FEF7B9FC00223C
:102DA00011460A20FEF7BEFC0A20FEF7B1FC08BD62
:102DB00000100240F0B587B014216846FDF7ECF929
:102DC000364842690121C9040A43426142690A4006
:102DD0000592426989100A43426142690A4005929C
:102DE000426949010A43426142690A4005924269C7
:102DF00009110A4342614069294C084005900022AC
:102E000021462848FEF739FC0927FF060022132136
:102E10003846FEF732FC002230212348FEF72DFC15
:102E200000940126022500240196029569461D485A
:102E30000394FEF779FB13200090694601960295F2
:102E400003943846FEF770FB3020009069460196E7
:102E5000029503941448FEF767FB14486A4631C292
:102E600069461348FEF760FB072040026A4631C2FC
:102E700069463846FEF758FBC0206A4631C26946AB
:102E80000948FEF751FB072080026A4631C26946B5
:102E90000448FEF749FB07B0F0BD000000100240F7
:102EA00018E30000000800480014004830C3000088
:102EB0000004004810B594B000240E940F941094B0
:102EC000119412941C2168461394FDF765F91C2196
:102ED00007A8FDF761F92B48294901602F2184607B
:102EE00041600461446128498461C160FEF79AFF32
:102EF000002801D0FDF73CFF012000030E900EA931
:102F00002048FEF7DCFF002801D0FDF731FF1D4807
:102F1000FFF78FF9002801D0FDF72AFF129412A9BC
:102F200018481394FEF75AFF002801D0FDF720FF40
:102F3000602005940194009002940394049400226C
:102F4000694606940F48FFF70CF9002801D0FDF7F9
:102F50000FFF01200794400308940C9009940A94F1
:102F60000B9407A90D940748FEF708FF002801D02D
:102F7000FDF7FEFE0348FFF7CBF814B010BD0000CC
:102F8000002C01405C120020E703000010B586B061
:102F90000024009417480194029403940494144963
:102FA000059401602F218460416004616321846184
:102FB000C160FEF737FF002801D0FDF7D9FE0120E0
:102FC0000003009069460B48FEF779FF002801D006
:102FD000FDF7CEFE202004A911C106480839FEF7EE
:102FE000FDFE002801D0FDF7C3FE06B010BD0000B5
:102FF000000400409C12002010B50C480A490160F2
:10300000E1214902416000218160C160016181616B
:10301000C1610C22016242614162FFF75DFA002842
:1030200001D0FDF7A5FE10BD00380140DC120020E4
:10303000704700008307FF22DB0E9A408907090EC4
:10304000994000280BDA0007000F08388308084869
:103050009B001818C36993430B43C36170478308EF
:1030600004489B001B181868904308431860704779
:1030700000ED00E000E400E0044901200870044A8B
:103080000021117003490870704700000000002003
:103090009E01002008020020F7B50A4684B00446CD
:1030A00010460699FDF7D4F8009020680099FDF7C6
:1030B000D7F80290A16A0098FDF779F8054600213B
:1030C000C9436068FDF747F9216AFDF7C9F8294649
:1030D000FDF7C6F8616AFDF76AF86062E169FDF71D
:1030E000DBFB01D2E06905E0A169606AFDF7CAFB7C
:1030F00001D2A06960620121E068FDF72CF901901E
:10310000276A3946FDF753F80646216B0698FDF706
:103110009FF805460121A068FDF71DF92946FDF736
:103120009FF8054639460198FDF796F8E16AFDF7E4
:1031300097F82946FDF78CF83146FDF7CEF8E062A6
:103140000546616A0298FDF732F82946FDF72FF827
:1031500060636169FDF7A0FB01D2606905E0216948
:10316000606BFDF78FFB01D2206960630098A0625D
:1031700006982063606B07B0F0BD00000149022093
:1031800088707047D40200207047000070B500F0CE
:103190004DF81D4801780024012902D1047000F087
:1031A00049F9FFF727FDFFF76BFC18480178012963
:1031B00002D1047000F06AFF15480588002D20D068
:1031C0001448007801281CD113480078002818D131
:1031D00012480178012914D1047011480088FDF7C4
:1031E00066FA04462846FDF762FA014622460D4873
:1031F000FFF752FFFDF797FA0B49488000B201F044
:10320000DDFC00F0BDF870BD100200207902002046
:10321000AA0100209E0100209F0100207B020020C7
:1032200082020020400D002000000020F8B5504828
:10323000504D0078504F01280BD00020295C012907
:103240003DD0030000F011FE08535A626A71798183
:10325000898F0024264607E0230000F006FE0805BB
:103260000D101D2024282C16002210214248FEF7A4
:1032700004FA01277F0308E00022022101E0002276
:1032800001210920C006FEF7F8F92E55641C072C11
:10329000E2DD37480670F8BD0022082109E000226F
:1032A0000121C90305E000220121890301E0002278
:1032B00039463248E7E7002220212F48E3E70300A0
:1032C00000F0D3FD080507090B0D0F111351012262
:1032D0000EE0012213E0012219E001221FE0012289
:1032E00024E001222AE0012230E0012236E000221F
:1032F00010213846FEF7C1F901209FE7002209207E
:103300000221C006FEF7B9F9022097E70022092042
:103310000121C006FEF7B1F903208FE70022082142
:103320001648FEF7AAF9042088E700220121C90304
:103330001248FEF7A2F9052080E700220121890347
:103340000E48FEF79AF9062078E70022012149038A
:103350000A48FEF792F9072070E70022202138463C
:10336000FEF78BF9F8BD401C0728C6DDF8BD00004C
:10337000000000205002002000140048000800480F
:10338000F8B50020174E184F184D0446230000F0E2
:103390006CFD0805081517191C1F230D0121490292
:1033A00001E0FF2101313046FEF762F9002816D016
:1033B00000212955641C072CE8DDF8BD2021F2E727
:1033C0001021F0E70121090304E00121C90201E015
:1033D000012189023846E7E780210548E4E7012119
:1033E000E7E700000004004800080048080000204B
:1033F000001400480149032088707047D40200205F
:1034000070B5094A0446137809345B1CDBB2002C02
:1034100006D0C41D04D0054D44002C5F8C4202D060
:103420001370FDF773FC70BDBD020020480B002037
:103430007047000030B52248C1B0017A08293DD953
:10344000002181701F4A8178515CA52936D1017A0B
:10345000491E01728178491C81708178515C5A291A
:103460002CD1017A491E01728178491C81708178C2
:10347000535C017A491E01728178491C81700021D8
:103480006C4609E08578555D6554057A6D1E0572B8
:1034900085786D1C8570491C9942F3DB6178A278B0
:1034A000090289182279130262799A180261C160AF
:1034B0000069054A49005052FFF782F941B030BD1A
:1034C00010020020CC0A0020480B002000B5064B5B
:1034D000DA60064A50701070917000205870032115
:1034E0009970FFF78BFA00BDD4020020C0110020B4
:1034F00004490220887000208880034908810871EF
:10350000C8807047D4020020C0110020F8B5164CC6
:10351000164962780F4600209037012A05D0A08016
:10352000A27852008852B852F8BDA2884B231B01E2
:103530009A4201D0002A12D1A080A578482D0CD241
:103540000B486E00008888530A498868C968FDF7EF
:1035500023F9B8536D1CA57001E04920A070A08824
:10356000401CA080F8BD0000CC020020A01000206C
:1035700080020020F00C002010B5FEF78BF810BD83
:1035800070B596B030216846FCF706FE00240C9416
:103590000D940E94142110A80F94FCF7FDFD10203B
:1035A000099402250490052001260095C004039685
:1035B0000A9008950B946846FEF71CFA07200C90B9
:1035C0000E9401210D950F940CA8FEF72BF910A86D
:1035D00010961294FEF7AAF816B070BD1348016851
:1035E0000122114301604168114A114041600168A4
:1035F000104A114001600168012292049143016068
:1036000041683F22120491434160C16A09090901DE
:10361000C162016BFF22543291430163416B49083F
:1036200049004163002181607047000000100240A2
:103630000CB8FFF8FFFFF6FE10B50248FEF7B7FC26
:1036400010BD00009C120020F0B502681D4B012443
:10365000A4071D4D984203D0A04201D0A84203D137
:103660007026B2434E683243184E194F98420DD01F
:10367000A0420BD0A84209D0164CA04206D0B042BE
:1036800004D0B84202D0144CA04204D10324240236
:10369000A243CC6822438024A2434C6922430260A7
:1036A0008A68C2620A688262984206D0B04204D038
:1036B000B84202D0084A904201D109690163012150
:1036C0004161F0BD002C0140000400400040014079
:1036D00000440140002000400048014010B5012393
:1036E000046A8B409C430462036A8A40134303626A
:1036F00010BD30B58468FF252D021B021343AC4377
:103700000B432343836030BD826870239A430A438E
:1037100007210A4382607047F0B5026A52085200DE
:103720000262056A436882697024A24392080C68A9
:1037300092001443022295438A68164E2A43144D80
:10374000A84207D0B04205D0134FB84202D0134F61
:10375000B84206D10827BA43CF68174304229743DB
:103760003A46A84207D0B04205D00B4DA84202D03D
:103770000A4DA84206D103252D02AB434D691D43D6
:103780008B692B4343608461496841630262F0BDE9
:10379000002C01400040014000440140004801402D
:1037A00070B5026A10239A430262056A426883690F
:1037B00073242402A3430C6824021C4320239D434A
:1037C0008B681B012B43124DA84208D11D46CB68C4
:1037D0008026B5431B012B434025AB4308E00D4D2C
:1037E000A84205D00C4DA84202D00C4DA84208D1E9
:1037F0000325AD02AA434D69AD0015438A699200C5
:103800002A434260846149688163036270BD00009D
:10381000002C0140004001400044014000480140AC
:1038200070B5026AFF2301339A430262056A436856
:10383000C2697024A24392080C68920014430122CA
:10384000520295438A6812022A43124DA84208D1B7
:103850001546CA68C614B54312022A430515AA4381
:1038600008E00D4DA84205D00C4DA84202D00C4DE9
:10387000A84208D103252D03AB434D692D011D43FB
:103880008B691B012B434360C4614968C1630262B9
:1038900070BD0000002C0140004001400044014088
:1038A0000048014030B5026A01231B039A430262BB
:1038B000046A4268C36973252D02AB430D682D026B
:1038C0001D4301235B039C438B681B0323430C4C68
:1038D000A04208D00B4CA04205D00B4CA04202D015
:1038E0000A4CA04205D10124A403A2434C69A401BF
:1038F00022434260C56149680164036230BD000033
:10390000002C0140004001400044014000480140BB
:1039100030B5036A046A6408640004628469F025AF
:10392000AC43120122430A24A3430B438261036286
:1039300030BD30B5036A1024A34303628469036A6F
:103940000F252D031203AC432243A024A3430901F6
:1039500019438261016230BD10B5818CC90707D05F
:1039600001684A6801235B049A43836A1A434A60E8
:10397000818C890707D501684A6801231B049A4393
:10398000C36A1A434A60818C490707D501684A68AF
:1039900001239B049A43036B1A434A60818C0907F5
:1039A00007D501684A680123DB039A43436B1A4336
:1039B0004A60818CC90607D50268916801231B0300
:1039C0009943836B19439160818C890607D50168FF
:1039D0008A6801235B039A43C36B1A438A60818C14
:1039E000490612D503685A6801210905046C8A4307
:1039F00022435A60026C8A4207D10268516803234D
:103A00005B059943436C19435160818C090607D5C6
:103A100001684A680123DB04806C9A4302434A60D0
:103A200010BD0000F8B500260446C666FDF72CFE62
:103A300005461449206888421DD10068124F0007CE
:103A400009D501212B46002249052046009700F0A8
:103A5000BCF900280DD12068006840070BD5012172
:103A60002B46002289052046009700F0AEF9002879
:103A700001D00320F8BD202060346072A07226724D
:103A80000020F8BD00380140FFFFFF0110B5406A7B
:103A90000022014640314A834A82FEF781FC10BD74
:103AA00070B5446A25466035687A0026212808D119
:103AB00020688068000604D552200653204600F096
:103AC00072F8A87A222808D120688068400604D5B8
:103AD0005A200653204600F04AF8E06E10210843B1
:103AE000E0662046FEF75CFC70BD10B50146096833
:103AF000406A0968890615D400225A210A520168D1
:103B00000A68FF2301339A430A6001688A685208F1
:103B100052008A6001688A6840239A438A602022A2
:103B20006A210A54FEF7C8FD10BD10B5406AFEF7C1
:103B3000F7FD10BD10B501460968406A096889069D
:103B40000DD4002252210A5201688A6880239A43C8
:103B50008A600068016840221143016010BDFEF7D1
:103B60002DFE10BD10B5406AFEF729FE10BD01689C
:103B70000A68FF2321339A430A6001688A68520861
:103B800052008A60202160308172704710B5016850
:103B90000A6840239A430A60202269210A54FEF7EA
:103BA0000DFE002010BD01680A68C0239A430A6018
:103BB000202160304172704770B5024640320346A2
:103BC0006033948B9D7A0168222D05D08869082284
:103BD00010438861022070BD898C012685683603F8
:103BE000B54202D10569002D0BD02140446D651C02
:103BF00045652170518B491E0904090C518307D07A
:103C000015E0456D21402980416D891C4165F1E732
:103C100001680A68FF242134A2430A6001688A68A7
:103C2000520852008A6020219972FEF745FD00205B
:103C300070BD0000F8B504462369A268E5691A431F
:103C4000636910202B43002125681A432B680E4618
:103C50003E4F3B4013432B6023685A6803252D03D6
:103C6000AA43E5682A435A60236AA26925681A4371
:103C7000AB680B273F02BB431343AB60344A256854
:103C8000954210D1334A126B9207920F0ED0012A3F
:103C900005D0022A05D0032A09D1022007E004201A
:103CA00005E0082003E02C4A954200D100200122C3
:103CB000E369D203934224D100280CD002280DD00E
:103CC000042813D0082817D001260A091201080772
:103CD000400F10432FE0FDF741FE09E061681F4AE5
:103CE00048088018FCF704FA81B2EEE7FDF746FEBB
:103CF000616840004A08F4E761680122480812043C
:103D0000EFE7002808D0022809D004280BD00828A3
:103D100014D001263046F8BDFDF720FE05E06168AD
:103D20000F4A48080CE0FDF729FE61684A08801830
:103D3000FCF7DEF980B22168C860EBE761684808EB
:103D40008018FCF7D5F980B2E860E3E7F369FFFF7C
:103D50000038014000100240004400400024F400FC
:103D600000127A006921095C212901D002207047E4
:103D700002464032518A002912D0012381681B0378
:103D8000994202D10169002915D0C16C4B1CC36452
:103D9000006809780185508A401E508200207047D3
:103DA00001680A6880239A430A600068016840221B
:103DB00011430160F2E7C16C03680988C905C90DA8
:103DC0001985C16C891CC164E5E7FFB581B0174650
:103DD0000E4604460A9D1DE0681C1BD0002D05D030
:103DE000FDF752FC0499401AA84213D920680168D3
:103DF000FF22A1329143016020688168490849008F
:103E00008160202060346072A07200202072032044
:103E100005B0F0BD2068C1693046884304D0002059
:103E2000B842D9D00020F3E70120F9E710B50248E5
:103E3000FEF7B8FA10BD0000DC1200202021020CB1
:103E400001D010211046020A01D01046083902099B
:103E500001D01046091F820801D01046891E420871
:103E600001D0881E7047081A704730B47446641E2B
:103E70002578641CAB4200D21D46635D5B00E318ED
:103E800030BC184702E008C8121F08C1002AFAD146
:103E900070477047002001E001C1121F002AFBD1CA
:103EA0007047000010B5074A07490020135C0C5CFE
:103EB000A34201D0002010BD401C0828F6DB0120E1
:103EC00010BD00000800002050020020FFB58DB09A
:103ED0000D981446C00009900E461846FCF7EEFBFC
:103EE000009000200890019184CC0998083C0019AA
:103EF00001460292803980388D6FC06F03903B4637
:103F000001990098FCF77AFC05D803CE3B46029A4B
:103F1000FCF74AFB64E02A46039B01990098FCF7F2
:103F200081FC0FD809982A468119084680388039C3
:103F3000806FC96F039BFCF737FB02460B46019964
:103F4000009851E00D9F01257F1E0DE0EA00A318A7
:103F50000CCB01990098FCF751FC03D86D1EE8B218
:103F6000089004E06D1CEDB2BD42EFDD0898C7007B
:103F7000E0190CC8F11904930A9203C9FCF714FB69
:103F8000039102903919CD688C68B8198168C668A8
:103F9000084622462B463146FCF706FB039B029A55
:103FA000FCF78BFA05910A9E049F0690204629464D
:103FB00032463B46FCF781FA0D46044632463B4604
:103FC00001990098FCF779FA22462B46FCF7ECFAA7
:103FD000059B069AFCF780FA039B029AFCF7C8F946
:103FE00002460B4601990098FCF776FAFCF7D4FBE1
:103FF00080B211B0F0BD000070B50C4C05000CD0C3
:1040000000F01AF800F0BEF8284600F0A7F800F01B
:10401000DFF9A08200F020FC70BD05490120087086
:10402000002121820349087070BD00009801002022
:104030000000002008020020F8B511480024114EAD
:10404000114F4088FCF73AFB05460091E200B31897
:104050000CCB28460099FCF7A7FAFCF7F7FBA10068
:10406000641C7850082CF1DB064C2846303C009943
:10407000E36AA26AFCF798FAFCF7E8FBA061F8BDD6
:104080009A020020C8010020AC040020FEB5FFF712
:1040900009FF2749012808D08889401C80B28881FF
:1040A000CA89904200D9C881FEBD214C0020214A16
:1040B00022344300E55A8300D658401CAD19D55030
:1040C0000328F6DB1A4843894169C9184161019107
:1040D0000179491CC9B2017100910A2924D1002437
:1040E0000846FCF7EBFA0E4605461248A700C059F1
:1040F000FCF7E4FA2A463346FCF756FA0D4AE30089
:10410000183AD21803C200200A49641CC851032C73
:10411000EBDB074C00990198FBF7EAFF20810120B7
:10412000E070002060612071014900208881FEBD9F
:1041300078020020080D002006480178012907D1E7
:10414000054A41681288891841608168491C81606C
:1041500070470000E402002082020020F8B5074EFC
:10416000074F054600246000305A281AFCF794FADD
:10417000A100641C7850FF2CF5DDF8BDCC040020B4
:10418000CC060020F8B50F4F002400263546204607
:104190002841C007C00FFCF78AFAA9007958FCF73C
:1041A0005FF83146FCF703F86D1C0646082DEEDB80
:1041B000FCF7B9FA034A61002032641C5052FF2C0C
:1041C000E3DDF8BDAC04002030B50F4C012560786C
:1041D000012801D9207200E02572E07861798842D7
:1041E00001D8607200E06172607A217A884204D25C
:1041F00005490931481E00F06FFBA078012801D95C
:10420000A07230BDA57230BD9801002070B5074C7A
:1042100005466078012808D1E068FCF748FA29468D
:10422000FBF7C5FFFCF77FFAE06070BDE4020020F9
:10423000024800214160012101707047E402002022
:1042400010B50B480B4C4088E17A88420DD2E07BD8
:10425000401CC0B2E073032806D1FEF70DFF0649EB
:10426000012008700420207110BD0020E07310BDF3
:104270009A020020980100204D020020F3B5002092
:1042800083B0264F044600900098FCF717FA0546C5
:10429000E0000E463918019003C90022204BFCF7BC
:1042A0001BF92A463346FCF7BDFA0AD201980022D0
:1042B000391803C91A4BFCF70FF9FCF76DFA80B2F5
:1042C0000090641C082CDFDB0098FCF7F7F90D4622
:1042D000144904468868C9680022114BFCF7FCF8B1
:1042E00022462B46FCF760F9FCF756FA82B208200A
:1042F0000399C0438A4201D9002402E0C82908D9A1
:10430000C8249621FFF77CF821460498FFF778F837
:1043100000E00C46204605B0F0BD0000C8010020BA
:1043200000005940F00C002070B512498200124C78
:104330008D58E561FCF7BBF9206210492846FBF770
:104340008FFFFCF7D7F9002810D02846A169FBF7AA
:10435000C4FF0B49FBF784FFFCF7E5F980B27D2130
:10436000C9002082884200D9218270BD00202082AD
:1043700070BD0000CC060020980100200000204104
:1043800000007A44F8B50026142506210F4F484353
:104390000446A0194000395A2846FFF731F8761C28
:1043A0006D1CEDB2F6B2192DF3D9084F00261A256F
:1043B000903FA0194000395A2846FFF721F8761C93
:1043C0006D1CEDB2F6B21F2DF3D9F8BD30110020EF
:1043D000FEB50024114801940168114E00910F4868
:1043E000A100405831460546FBF73AFFFCF782F939
:1043F000074631460098FBF733FFFCF77BF987420D
:1044000007DA2846FCF776F9002802DBA0B200950F
:104410000190641CFF2CE2DD0198FEBDCC0600205B
:104420000000C842F8B5FFF73DFD002831D0214C0F
:104430000025257000F056FA1F4F00282FD01F4886
:104440001F4E0078012803D03878012817D014E0D7
:104450006078012811D1608800280ED07D21C90024
:104460004843FCF724F9FCF7B5F90022154BFCF79B
:104470009BF8FCF791F980B203E0A5800AE01248AE
:104480000088A080002805D0706300210F48FDF748
:10449000EDFEF8BD00210D48FDF710FFF8BDA58029
:1044A00000210A48FDF70AFF657009493D700320A5
:1044B0000870F8BD080200209E0100209F01002026
:1044C000002C014000C05340A80100205C120020D5
:1044D0004B020020F8B5214C0646002902D00129E4
:1044E00025D0FEE700256F00E05FB0421BD1002120
:1044F0003046FEF785FF1A4A907802280ED3411EF7
:10450000A94202D10020E05306E0400000194038E3
:10451000C38FE3530023C387917004E0012802D1C5
:104520000020E05390706D1C202DDCDBF8BD0C4AA0
:1045300091782029FAD200204300E35EB34201D1F2
:10454000002300E00123401C2028F5DB002BEDD0E8
:1045500048002652491C9170F8BD00006E0C0020E6
:104560004C02002070B50C4C0A20A2681146424350
:1045700015466068FBF7BCFDE12168430901FBF7C4
:10458000B7FD0546FCF793F8FFF740FE00202070CA
:104590006060284670BD0000E402002010B50021D4
:1045A0000C48FDF763FE00200B4901220C23434316
:1045B0005B18401C5A802428F8DB4824012120463F
:1045C000FEF71EFF641C6C2CF8DB01219020FEF727
:1045D00017FF10BD5C120020FC020020FDF762F8FE
:1045E000FEF7CEFF4B200001FCF78FFFFEF7E2FB4A
:1045F000FEF7C4FBFEF77AFBFEF75CFCFEF7C6FC99
:10460000FEF7FAFC00F054FA00F038F80748FDF71E
:104610004BFC0A20FCF779FF08206421C043FEF719
:10462000EFFEFFF7BBFFFEF7B1FDFCE75C120020D9
:1046300070B5104A00201546183DC1006C1818CC02
:10464000511818C1401C0328F7DB0B4CE088FCF71D
:1046500035F8E162A0620020C3000021EB180A4691
:1046600006C3401C0328F7DB0020E08001202070F7
:1046700070BD0000C80C00207802002010B506486C
:10468000FCF7B8FB0548FDF70FFC0322044902487C
:10469000FCF718FE10BD0000CC1100209C12002079
:1046A00094020020F0B50D490D4FC8883B46401CD0
:1046B000C8800020843B094942001C31895A82008D
:1046C000B950C4001A1916685268CD0F71186A41A2
:1046D0001C1906C4401C0328EDDBF0BD7802002045
:1046E000340D0020F0B587B003A8FCF77BFB03ABCB
:1046F00007CB6B4607C3FFF767FD534C21790029B1
:1047000078D0524F01260025012960D00920C0062B
:10471000022971D0032905D0042969D1A07B012881
:1047200034D037E001221021FCF7A7FF6420FCF70A
:10473000ECFEA07B012803D100212320FEF760FEC0
:104740000120A071952600213046FEF759FE761C07
:10475000B92EF8DB0020C0436073E571607A3C4AF3
:10476000401EC1B2207A401EC0B2FEF7AFFE03A8C1
:10477000FCF738FB03AB07CB6B4607C368460079F1
:104780006082FFF739FC0120387054E000212320BB
:10479000FEF736FE00212220FEF732FE0D202056C5
:1047A00000219530FFF796FE68460078002195308D
:1047B000FFF790FEFEF79CFE65822846FFF71CFC83
:1047C00024480670FEF758FC0420A0730FE0A07B7D
:1047D000032814D1FEF7D2FC1E480670FEF74CFCED
:1047E000A67128466582FFF707FC3E70A673257107
:1047F00007B0F0BD21E0FFE7A17B012904D0002133
:104800002320FEF7FDFDF2E701221021FCF735FF22
:10481000C820FCF77AFEA671FEF7ECFD03A8FCF7B2
:10482000E1FA03AB07CB6B4607C3684600796082A9
:10483000FFF7E2FB3E700320C7E7A07B0328D7D138
:1048400000F042F9D4E7000098010020080200209F
:10485000FC0200204D02002070B50021084A01240E
:104860000B460546CD40ED0701D0545400E05354AB
:10487000491C0829F5DBFFF757FD0248047070BD9D
:10488000500200200802002000B50346FEF7E4F8BD
:10489000002803D000210A4606C300BD03488068F3
:1048A000C2000348815810184268F5E7A8020020AA
:1048B000780D002010B507484178012908D1002162
:1048C00041700F20FEF79CFD00212120FEF798FD8E
:1048D00010BD00004C02002002780B7803700A70B3
:1048E00070470000054900200A5C012A04D0401CE2
:1048F0000828F9DB002070470120704708000020DD
:10490000F0B51D4AD56893681C4AAB4209DB0BE041
:10491000DC001659864203D1A41864688C4227D063
:104920005B1CAB42F4DD25E0AB4219DD002408E05E
:10493000E700D659864203D1BE1876688E4217D05A
:10494000641CAC42F4DD08E0DC001559854203D15B
:10495000A41864688C420BD05B1C652BF4DB09E067
:10496000DB00D458844205D198184068884201D1B0
:104970000120F0BD0020F0BDA8020020780D00202D
:10498000F0B58DB0FEF768F801284ED005A8FCF709
:104990006FF90598002848D002460932A5263D4CFB
:1049A0005A21002A1DD0C21D8227002A25D0069B2D
:1049B000267061700521A1700212E770227160718A
:1049C0001D12A5714200E37133480699815207A870
:1049D000FFF75AFF0026314DFEF73EF8002826D09B
:1049E0004FE0267061700320A0708020E0700220EC
:1049F000207106986071062213E0267061702D21E7
:104A0000A1700120E77020712622244906206271DE
:104A100014310A18203A927E2254401C2D28F8D3D3
:104A200064221C491E48FDF77DFE0DB0F0BD0798BD
:104A30000146093125D0C01D23D005A8FCF718F97F
:104A4000069A0292E9781212059896468C46A5229B
:104A5000C90062545A2209194A7005228A70031249
:104A6000CF700B71487172468A71029ACA716146A1
:104A7000491C4200E97008480699761C8152062EAE
:104A8000AADBE8780349C2000548FDF74BFE012088
:104A9000E870CAE7E40A0020480B0020100200205A
:104AA000DC1200200149C88070470000B8020020D5
:104AB00010B5012202490348FDF7ACFD10BD00000E
:104AC00011020020DC12002070B586B003A8FCF7AC
:104AD00089F903AB07CB6B4607C3354C207B022813
:104AE00023D168460678607A324D401E86423248AD
:104AF00020561CDD0C21414349194988DD30FEF761
:104B00007FFC0D20205600219530FFF7E3FCFFF7D6
:104B100029FD01460D2020560C2242435219DD305A
:104B20005160FEF76DFC0420207106B070BD864216
:104B300036D0411C24D001460C22514349194988E2
:104B4000DD30FEF75DFC0D20205600219530FFF78B
:104B5000C1FCFFF707FD0D2161560C225143491995
:104B60004860FFF765FB0D2020560C214143491991
:104B70004968DD30FEF744FC0D202056401C01D171
:104B8000FFF756FB304695300121FFF7A3FC0120CB
:104B9000A07168460078607368460079FFF72CFAC8
:104BA000684601890D202056DD30FEF729FCBCE760
:104BB00098010020FC0200200D000000F8B51E49FD
:104BC000214D0C881D4947198E8881B28C460546B7
:104BD0001B4901221B4B3235B44211D0174EB48011
:104BE0007D26F600B04201D8604604E0312F0DD991
:104BF000322D03D2002008801A70F8BD204617E03D
:104C00007D26F600B042EFD9312F01D80E80F3E7B0
:104C1000322DEFD30D48094A018808488C42C088DC
:104C200002D9411A401801E0091A401A80B2D08016
:104C3000FFF7E2F9F8BD0000AA0100200000002003
:104C4000A80100200802002017FCFFFF82020020BC
:104C5000000000000000000001020304060708092C
:104C60000000000001020304884C0008000000203E
:104C7000FC020000580A0008D44D0008FC02002085
:104C8000DC140000943E0008021C0154749D404B4B
:104C900038A0084BA8A1084B22A3084B92A4084BAC
:104CA0000EA6084B82A7084BFAA8084B70AA084B1F
:104CB000E0AB084B5EAD082DD2AE4033015B5359DB
:104CC000201D5B409A99015B595E381D6040CDCC38
:104CD000014BAC61084BEC62085B2C64204A650810
:104CE0005BB066205A67203C694066015A6A084AF0
:104CF0002528114A34704BB33E084B3347704B198B
:104D00004A384B8C50104B3953204BD355104BD94C
:104D100059104B935D105BA960B04A61084B50700D
:104D2000084B307D084B2886084B8490084B8092B6
:104D3000084B8C97084B649B084B0C9F084B7AA23E
:104D4000084B36A5084BFEA70814E2A9402501012F
:104D5000240452011AFF0A01173998182D990B40A3
:104D6000E17A14AE47E10A409EEFA7C64BB7154063
:104D7000DD24068195431B403108AC1C5AE41A40DF
:104D80008D976E1283C014406F06380ECA211640EC
:104D9000EC51B81E85EB0B4048394A147861197400
:104DA0004977810A142001E010496E707574204320
:104DB000757272656E74203A29423202320329BE3E
:104DC000320532063207023B085AFF010141131235
:044DD0007A00000065
:04000005080000BD32
:00000001FF
