:020000040800F2
:10000000C0150020D5000008F12F00089529000830
:1000100000000000000000000000000000000000E0
:10002000000000000000000000000000F1330008A4
:1000300000000000000000004931000835350008CC
:10004000E7000008E7000008E7000008E7000008F4
:10005000E7000008E7000008E7000008E7000008E4
:10006000E7000008FD0B00080D0C0008E700000881
:10007000B10A0008E7000008E7000008E7000008F0
:10008000F5350008E700000800000000E700000860
:10009000E7000008E7000008E7000008E7000008A4
:1000A000E7000008E7000008E7000008E93D000855
:1000B000E700000800000000E7000008044885464B
:1000C00000F0B8FC00480047F5440008C046C046B0
:1000D000C01500200448804704480047FEE7FEE7BB
:1000E000FEE7FEE7FEE7FEE799350008BD000008E1
:1000F00030B50B46014600202022012409E00D46C0
:10010000D5409D4205D31D469540491B2546954047
:1001100040191546521E002DF1DC30BD70B500248B
:100120002546002801DA01244042002901DA012590
:100130004942FFF7DDFFAC4200D04042002C00D026
:10014000494270BD10B5202A04DB0846203AD04051
:10015000002110BD0B46D340D0402024A21A91406C
:100160000843194610BD03460B439B0703D009E023
:1001700008C9121F08C0042AFAD203E00B780370E2
:10018000401C491C521EF9D27047D2B201E00270E5
:10019000401C491EFBD270470022F6E710B51346FB
:1001A0000A4604461946FFF7F0FF204610BDF8B591
:1001B00002464A40D40F42004B0052085B089A4264
:1001C00002D20246084611464A0023D0C30D4A0017
:1001D000DDB2120EAD1A202D35DA49020126490A88
:1001E000F6058A19002C00D0524220214F1B1146DF
:1001F000B9402A411018C20D9A4221D0002C17D0C4
:10020000012D08DCDA05801AD20F8019D207DBB283
:1002100000F077FBF8BDDA05801A012340001B06C9
:10022000C01880185A428018CA0F1043490007E0CE
:100230004908C2071143DA05801A8019400880185E
:1002400000F057FBF8BD61000122511A001BF7E7CF
:100250000122D2075140AAE70122D2075040A6E767
:10026000024670B54A40D30FDB0740002DD04A004C
:100270002AD0010E140E000212020919400A520A75
:100280008418E50104465443000A120A2E04504320
:10029000A4194219200CC543AA18120C0125AD035C
:1002A000521C521912047F39240400D0521C1043EE
:1002B00001D44000491EC2B20C06C0092018401CDF
:1002C0004008802A02D003E0002070BD40084000B2
:1002D000002900DA0020184370BD70B502464A407C
:1002E000D50F40004A00ED0740085208002814D0FE
:1002F000002A12D0C40DD30D41020120C0055202C4
:10030000490A520AE41A091812187D34914201D39D
:10031000641C00E04900002C01DA002070BD0023BD
:10032000914201D3891A0343400849000028F7D1BC
:1003300000290AD0914202D10121C90705E091426A
:1003400001D2012101E00121C943E005C018401993
:1003500000F0CFFA70BD420005D04200120E5242AA
:100360008A4201DB00207047C90508187047000069
:10037000F0B507460846584087B0C00F04904800C3
:100380000E46590040084908BC1A884105D2384633
:1003900031461E4617460B46024658004008104399
:1003A0004DD0300D039040055900400D490D05908A
:1003B000401A0290402873DA18030121000B090546
:1003C0000843019004980092002806D01146019A33
:1003D00049420020904100910190029840210A1A60
:1003E0000199009800F062FA05460C466B4607CB6F
:1003F00000F06CFAC0197141039A0E0D0023D71753
:1004000056401A467A40164344D0049A002A2DD00A
:10041000029A012A039A15DC1205C01A914101269D
:100420003605001C7141D20F059ED2070093019240
:1004300002962A46234600F0AAFA07B0F0BD3846D5
:100440003146FAE71605234A0F46B218C01AB741DB
:1004500001210905001C4F4100187F411146181861
:100460007941E20F10436D19644113E0E2076D0812
:1004700015436408C2071443039A01261205C01AE3
:1004800091413605001C7141CE07400830434908B0
:10049000C01851412A46234600F06CFACDE7FFE729
:1004A000049801224000C117121A00238B410498BE
:1004B0003146C417381AA141EEE730B40124E407ED
:1004C000634030BC54E730B40124E407614030BCE1
:1004D0004EE700000000E0FFF0B51FB488B00B99B4
:1004E0000998002448400999C00F4900490809911A
:1004F000C0070B990090490049080B910999089889
:10050000A64608431CD00B990A98084318D00998AE
:1005100001244000420D4800410D099824050003C4
:10052000000B204309900B980003000B20430B9015
:1005300050181C494018002201901446104605E04E
:10054000002001460DB0F0BD032801DA034600E0AB
:1005500003239C46C11A0AAE0AE05F0008ADED5BBA
:100560004F00F75B7D430027AA187C41491C5B1EA6
:100570006145F2DD410004AB5A522104120C0A43DA
:10058000240C401C0828DFDB01980290009970467B
:1005900001910090059B049A0799069800F0F7F9DD
:1005A000D0E700000DFCFFFFF0B50C465C4085B0C5
:1005B000E40FE40703944C000026640859009446B5
:1005C000490802460296224321D062460A431ED0C1
:1005D0006200570D4A000E032303550D0124024605
:1005E0002C492405781B1B0B360B4018234326434C
:1005F000614600901C46501AB44103D30098401C39
:10060000009002E0921800985B41002803DA002075
:10061000014605B0F0BD00200121090507468646C8
:1006200011E064461D46141BB54106D36546521BB6
:10063000B341744607430C43A646CD07400849081A
:10064000284392185B4105460D43EAD110461843F2
:1006500013D06046194650407140084306D06046AA
:10066000101AB34106D20122002306E00022012322
:10067000DB0702E00122D2435310009874460105C3
:10068000381C6141029C039D0019694100F072F918
:10069000BFE70000FD030000C217C10F504010B5B6
:1006A0004018CA079623002100F02BF910BD10B5A1
:1006B00000229623114600F024F910BD0EB505491D
:1006C0000291002100910A460B46019100F05FF96A
:1006D00003B000BD330400000EB5054A02920022AB
:1006E00000921346019200F052F903B000BD0000E1
:1006F00033040000C20F410040020123400ADB0521
:10070000D207090EC0187F2901DA00207047962908
:1007100003DC9623591AC84001E096398840002A24
:10072000F4D040427047410040020122400AD20505
:10073000090E80187F2901DA00207047962903DC12
:100740009622511AC8407047963988407047000079
:1007500070B5CD0F4A0009030123090B1B0519438E
:100760000B4BED070024520D9A4201DA002070BDB8
:10077000074B34339A4203DC9A1AFFF7E3FC02E09A
:100780000449511888402C43F1D0404270BD00000C
:10079000FF030000CDFBFFFF4A0009030123090B03
:1007A0001B051943094B10B5520D9A4201DA00207E
:1007B00010BD064B34339A4203DC9A1AFFF7C2FC91
:1007C00010BD03495118884010BD0000FF03000010
:1007D000CDFBFFFFC20FD207400040080BD0C10D78
:1007E0000723DB01C91840020905400A1143C2086A
:1007F00040071143704700200146704710B500299B
:1008000004DB0124E40740428C412146002B04DB39
:100810001C460123DB075242A3418B4200D1824296
:1008200010BD000010B5002904DB0124E40740429C
:100830008C412146002B04DB1C460123DB0752427E
:10084000A341994200D1904210BD0000CB0FDB07BD
:10085000490010B5490802460A4307D00A0D07248B
:100860000903E401090B121B002A01DC002010BD62
:10087000C900440F0C43C100E018D205801800F0F5
:1008800038F810BD0122D207002800DB101A002919
:1008900000DB511A814270470122D207002800DB99
:1008A000101A002900DB511A8842704710B5202A1F
:1008B00004DB0146203A9140002010BD91402023E6
:1008C0009C1A0346E3401943904010BD10B5202AFE
:1008D00006DBCB170846203A1041C1170B4306E050
:1008E0000B461341D0402024A21A914008431946D8
:1008F00010BD002904DA401C490001D14008400025
:10090000704770B40024050C05D11024000402D1F6
:10091000002921D01124050E01D100020834050F51
:1009200001D10001241D850F01D18000A41C0028E5
:1009300001DB4000641C002908D020252E1B0D4639
:10094000F540A14000D001212943084301061B1BAB
:10095000000ADB1D02D5002070BC7047DB051818AB
:1009600080180029F8DA401C4900F5D170BC400815
:100970004000704710B5002B08DA0024401C61418C
:1009800092185B411A4301D14008400010BDF0B5F8
:100990001FB482B005460C0003D0084603F02CFAC1
:1009A00002E003F029FA2030024600902146284652
:1009B000FFF77CFF049B059A04460F46184311433A
:1009C000084314D0184610431BD0009840210A1A3F
:1009D00018460599FFF7B6FB05460E46009A05999D
:1009E0000498FFF763FF084305D0012004E0204688
:1009F000394607B0F0BD0020C11705430E432C4314
:100A0000374300990E986305401A7905E40A0022DD
:100A10000C43FD0A0A3002D500200146E9E7010532
:100A2000101969410C9C0D9D00196941FFF7A2FF47
:100A3000DFE70000064C0125064E05E0E36807CC21
:100A40002B430C3C98471034B442F7D3FFF73AFBE2
:100A50002C4B00084C4B000870B58C180578401CD6
:100A60006B075B0F01D10378401C2A1106D1027875
:100A7000401C03E006780E70401C491C5B1EF9D137
:100A80002B0705D40023521E0DD40B70491CFAE726
:100A90000378401CCB1A921C03E01D780D70491C92
:100AA0005B1C521EF9D5A142D8D3002070BD0000B6
:100AB00010B5024800F092FA10BD0000B40F0020FB
:100AC00010B50146406A426C50231A420AD1416C6B
:100AD00001225202114341640168CA681205920F53
:100AE00005D020E0C06B026B0846904710BD026A3B
:100AF000002A18D10A68120715D58A6853070122FF
:100B0000002B09DB4B680C24A3434B60416C1302A0
:100B100099431143416406E0416C20231943416429
:100B2000816C1143816400F053FA10BD10B5406A26
:100B3000416C402211434164816C04221143816461
:100B400000F04BFA10BD10B5406A00F045FA10BD38
:100B5000F8B5044600200090206881688907890F55
:100B6000012905D10168C9072CD1C168090429D41C
:100B70008168154A102611400125002915D1816888
:100B800029438160124811490068FFF7B1FA00E07B
:100B9000401E00900028FBD100F076FD07460CE0D7
:100BA00000F072FDC01B022807D9606C30436064FE
:100BB000A06C2843A0640120F8BD20680068C043F1
:100BC000C007EDD10020F8BD1700008040420F00A3
:100BD0000002002010B5074903C9FFF7B9FD01461F
:100BE0000E2002F0EDFB044801880F2002F0E8FB24
:100BF00010BD0000D80A00209801002010B502485E
:100C000000F0D4FB10BD00000010002010B5034818
:100C100000F0CCFB024800F0C9FB10BD34110020ED
:100C20007811002010B504460068054940181421C9
:100C3000FFF75EFA800020640248E06310BD000008
:100C4000F8FFFDBF0000024030B5056C0124AC4048
:100C5000C56B6C60046863604368102B036803D045
:100C600099600068C26030BD9A600068C16030BDA4
:100C7000F8B5074601F0E0FE0025002802D02E4618
:100C800060C7F8BD0E4C0F48616801290CD0491EA1
:100C90006160A268D1004558081846686521501C5B
:100CA000FFF73CFAA160EBE76560A168C900455811
:100CB000081846680020C043A060E060E0E700003C
:100CC000C0010020600B002000B50E488178032988
:100CD00016D18168491C81600A2904D100218160F4
:100CE0008188491C8180084A81881181D2888A4282
:100CF00001D8022100E003210170012001F074FEFF
:100D000000BD0000EC010020A80F0020F8B5164C33
:100D100001250E460746657003F07EFD002815D1BB
:100D200001F094FE012814D001F086FE0F4D012839
:100D300011D0E0686521401CFFF7F0F9E1606068C0
:100D4000401C6060C8002F50401946600020607051
:100D5000F8BD2570FAE70020A060E0606068401CE4
:100D600060602F606E60F1E7C0010020600B002022
:100D700070470000F8B5194C194EE0782146401C28
:100D8000C0B2E0708978022805D0002805D000297B
:100D900015D000251DE00020E07000290FD00025AF
:100DA0000827FF4308E06800305E0146093107D09C
:100DB000012102F005FB6D1CA0788542F3DBF8BD34
:100DC00021783846F5E76800305E002102F0F8FA35
:100DD0006D1CA0788542F6DBF8BD000064010020A0
:100DE000560A002010B50A220149FFF7BCF910BDD0
:100DF000A80F0020F8B5054604464035287800269F
:100E0000012808D001202870206881688907890F8F
:100E1000012908D101E00220F8BD0168C90738D1D5
:100E2000C168090435D4616CFF220132914302226A
:100E300011436164C1688907890F0091C1688908FD
:100E40008900C1602068816892071143816000F0C9
:100E50001BFC07460EE000F017FCC01B022809D956
:100E6000606C0221884310210843606400202870D0
:100E70000120F8BD206880680028ECDB2068C1688C
:100E8000009A1143C160606C80088000401C60645F
:100E900004E0606C20210843606401260020287073
:100EA0003046F8BDF8B50025044640340095227858
:100EB000012A3BD00122227003689E68760776D40F
:100EC0003F4F4E68BE4254D09E6A0F78BA401643D8
:100ED0009E620123826B1B079A421FD0012A1DD0FC
:100EE000022A1BD0032A19D0042A17D0052A15D0AC
:100EF000062A13D0072A11D002688B685669760734
:100F0000760FB3420AD05369DB08DB0053610068F7
:100F100042690B7A5B075B0F1A434261086810282D
:100F200006D0112804D0122802D045E00220F8BDD6
:100F3000244A9368102809D011280AD001200006FD
:100F4000034393600868102806D035E00120C005EF
:100F5000F6E701208005F3E71C481B490068FFF70E
:100F6000C7F80A21484300E0401E00900028FBD14A
:100F700022E0986A0E78B240904398620868102880
:100F800003D0112801D0122816D10E498A681028E2
:100F900007D0112808D00120000682438A600BE0A8
:100FA00005E00120C005F8E701208005F5E7416C68
:100FB0002022114341640125002020702846F8BDFD
:100FC000011000000027014040420F0000020020F5
:100FD00000B503F0F3FA00BD7047704770B50446E2
:100FE00000680168490702D54168490705D40168CE
:100FF000090730D5416809072DD5616CC90604D4AD
:10100000616C0122520211436164C1680C2509051B
:10101000890F00291AD1216A002917D1016809070F
:1010200014D581684A070121002A08DB4268AA43D7
:101030004260606C0A0290430843606406E0606CA2
:10104000202210436064A06C0843A0642046FFF790
:10105000BFFF206805602068016809060DD540685B
:1010600000060AD5606C012109040843606420462B
:1010700000F0D6F821688020086020680168C90661
:1010800013D54168C90610D5616B1025012902D01E
:10109000C168C90707D0A16C02221143A164056091
:1010A0002046FFF79AFF2068056070BDF8B500255F
:1010B0000446002803D0606C002802D008E001201C
:1010C000F8BD0020A06440210855204600F0AAF891
:1010D000606C1022C006002870DB20688168490718
:1010E0006CD4616C130199430223194361648168D4
:1010F0008907890F012905D10168C9070FD1C16886
:1011000009040CD4C16818239943A3681943C1602A
:1011100020680169636889008908194301612068B2
:10112000C1683D4B1940C160A069E1698003C903F2
:101130000843216A4B031843636B012B02D0012340
:101140001B0300E000231843E36818432369022BC4
:1011500009D000231843236B666A5B001843012300
:10116000012E02D00AE00423F4E7002927D0616CA5
:10117000202631436164A16C1943A164A16A0E4623
:10118000FF3EC23E02D0E66A314308432168CE6882
:101190000643CE600126A16B3607B14213D0012968
:1011A00011D002290FD003290DD004290BD0052915
:1011B00009D0062907D0072905D010E028E0012131
:1011C00009040843DAE721684E69F608F6004E6123
:1011D00021684E69278F7F077F0F3E434E6121684C
:1011E000C9680E4E3140814207D10020A064606C76
:1011F00080088000401C606408E0606C0221884325
:1012000010436064A06C1843A06401252846F8BD13
:10121000606C10436064F8E71902FEFFE7FF3F834C
:101220007047000070B586B0054614216846FEF789
:10123000B3FF1F492868884237D11E498A69401583
:1012400002438A618A69024005924A698002024328
:101250004A6149690026014005910720009003205A
:10126000019069460296144800F05EF91348144C48
:1012700041C48020266060604000A0608000E06083
:101280002020666120610E48083C00F0DDF800284F
:1012900001D0FFF76DFDEC63002202210C20656296
:1012A00000F040FA0C2000F033FA06B070BD0000E8
:1012B00000240140001002400008004808000240DD
:1012C00000100020F7B5044600680025806840073C
:1012D0003DD426464036307801280AD001273770A1
:1012E000E069012807D02046FFF732FC050002D054
:1012F0002EE00220FEBD606C16490840FF2101313E
:10130000084360640020A0643070E16B124888627A
:10131000E16B1248C862E16B1148086321681C2028
:101320000860206841681022114341602068C1684C
:101330003943C1602168E06B4031029B019A00F0A3
:10134000AFF82068816804221143816000E0022523
:101350002846FEBDFEF1FFFFC10A0008470B00084A
:101360002D0B000870B50024014620314A78022A6E
:1013700003D004218163012416E0026813680E255E
:10138000AB431360026813685B085B0013600122C3
:10139000056C1346AB40C56B6B604A7000220A7047
:1013A000416B002900D08847204670BDF0B4C16B66
:1013B0000D6801680C680422066C1346B3402B428A
:1013C0000DD063070BD50B689B0602D40B689343C3
:1013D0000B60016C8A40C16B4A60C16A19E0022748
:1013E000B74002462F4001232032002F15D0A70717
:1013F00013D50C68A40604D40C680A25AC430C6011
:101400005370036C02219940C36B59600021117025
:10141000816A002916D0F0BC08470827B7402F4240
:1014200010D024070ED50C680E25AC430C60046C5C
:101430001946A140C46B6160836353700021117031
:10144000016BE6E7F0BC704770B5040024D00220C1
:10145000214620310D464870226811680F48A36864
:101460000140606826691843E368334318436369A1
:101470001843A3691843E3691843084310602046E2
:10148000FFF7D0FB0020A062E06220636063A063EE
:1014900001216970287070BD012070BD0FC0FFFF71
:1014A000F8B504468C46203001780025012909D082
:1014B0000126067041780027012905D00770022512
:1014C0002846F8BD0220F8BD02214170A7632068BC
:1014D000016849084900016061462046FFF7B4FBF6
:1014E000E06A00282068016802D00E22114306E05D
:1014F0000A221143016020680168042291430160BF
:101500002068016831430160DAE731B500F0BCF8CA
:10151000009C0546601C00D0641C00F0B5F8401B20
:10152000A042FAD338BD0000F8B500238DE00124B5
:101530009C40A44622407DD04C68022C01D0122C45
:101540000CD1DC08A40027183C6A5D07ED0E0F26BD
:10155000AE40B4430E69AE4026433E6205685E006D
:101560000324B4400F79A543BF07BF0FB7402F43F3
:1015700007604D68012D05D0022D03D0112D01D03B
:10158000122D0ED18568CF68A543B7402F438760E1
:1015900047686546AF430D79ED06ED0F9D403D432D
:1015A0004560C568A5438C68B4402C43C4604C6852
:1015B000E40049D5284CA56901263543A561A469F5
:1015C0009D0834400094254CAD002F19BC689D0740
:1015D0002E0F0F25B540AC430925ED06A84201D1D9
:1015E00000250FE01E4DA84201D101250AE01D4D46
:1015F000A84201D1022505E01B4DA84201D10325D7
:1016000000E00525B5402543BD60184C25684E68AF
:101610009543F60300D51543256065684E689543EC
:10162000B60300D515436560A5684E689543F6027C
:1016300002D500E008E01543A560E5684E689543D3
:10164000B60200D51543E5605B1C0A681446DC4011
:1016500000D06CE7F8BD000000100240000001401F
:101660000004004800080048000C00480004014045
:101670000069084000D001207047002A01D0816134
:1016800070478162704700000148006870470000A1
:10169000FC01002002480168491C016070470000FD
:1016A000FC01002010B506480168102211430160BA
:1016B000002000F007F800F017F8002010BD00002F
:1016C0000020024010B5044600F042F97D21C90017
:1016D000FEF70EFD00F038FB00222146501E00F000
:1016E00021F8002010BD000008B5084881690122DA
:1016F00011438161816911400091C26901040A436B
:10170000C261C0690840009008BD0000001002409E
:10171000C106C90E012088400149086070470000D9
:1017200000E100E010B501F065FC10BDF8B505461C
:101730000068394CC00352D5E0690026C00007D4C8
:10174000E16920040143E161E16901400126009162
:1017500032480168C90510D401688215114301603F
:10176000FFF792FF074604E0FFF78EFFC01B6428D7
:1017700024D82A480068C005F6D5206A03273F020E
:10178000384020D06968394081421CD0206A226AE2
:10179000B843012109040A432262226A8A43226271
:1017A0002062C0070FD0FFF76FFF009008E0FFF73F
:1017B0006BFF0099411A1A48814201D90320F8BDF4
:1017C000206A8007F3D5206A6968B843084320621D
:1017D000002E04D0E169012000078143E1612878EF
:1017E000C00705D0206BA9688008800008432063EB
:1017F0002878800605D5206B10218843E9680843C6
:1018000020632888400505D5206B4021884329693D
:10181000084320630020F8BD001002400070004023
:1018200088130000F8B5054644480E460068C00716
:10183000C00FB0420AD2414801684908490031430B
:1018400001600068C007C00FB0425CD128783C4CF2
:10185000800705D56068F0218843A9680843606067
:101860002878C0073FD06868012813D02168022873
:1018700013D08907002946DA616889088900014385
:101880006160FFF701FF6968074601290DD0022951
:1018900017D024E021688903ECE78901EAE7FFF724
:1018A000F3FEC11B2748814217D860680007800FEC
:1018B0000128F4D117E0FFF7E7FEC11B2148814260
:1018C0000BD860680007800F0228F4D10BE0FFF707
:1018D000DBFEC11B1B48814201D90320F8BD6068B3
:1018E0000007800FF3D115480168C907C90FB1423D
:1018F0000BD9016849084900314301600068C007FD
:10190000C00FB04201D00120F8BD2878400706D5AD
:101910006068072109028843E9680843606000F0B5
:101920002DF86168084A0906090F515CC84007494B
:1019300008600020FFF7C6FE0020F8BD002002402E
:101940000010024088130000144B00080002002021
:101950000148006870470000000200200448054963
:1019600000684968044A4905490F515CC8407047FE
:101970000002002000100240244B000810B512A302
:101980000FCB88B06C460FC413A30FCB0FC41649FE
:101990004A680C20134603401448042B0FD0082B30
:1019A0000DD193021B0F6C46E45CC96A04AB0907B6
:1019B000090F595CD20304D5FEF79AFB604308B0C7
:1019C00010BD0B486043FAE7020304050607080947
:1019D0000A0B0C0D0E0F1010010203040506070878
:1019E000090A0B0C0D0E0F100010024000127A00B5
:1019F00000093D00FEB504460078D04DC00747D031
:101A000068680007800F012807D068680007800F0A
:101A1000022809D16868C00306D52868800337D535
:101A2000606800287ED033E0012062680004012A4B
:101A300011D08100002A01D0052A10D02A688243E3
:101A40002A602868884328606068002814D0FFF75F
:101A50001BFE06460CE0296801432960F4E72A686A
:101A60000A432A60F7E7FFF70FFE801B64286FD850
:101A700028688003F7D50BE0FFF706FE064604E072
:101A8000FFF702FE801B6428F1D828688003F7D492
:101A900020780126800700283BDA68680007800F5D
:101AA00007D068680007800F022809D16868C00362
:101AB00006D42868800715D5E068012832D111E0E6
:101AC000E0680028286815D030432860FFF7DCFD67
:101AD000074604E0FFF7D8FDC01B0228C7D82868D6
:101AE0008007F7D52868F82188432169C900084391
:101AF00028600EE0400840002860FFF7C5FD07465B
:101B000004E0FFF7C1FDC01B0228B0D82868800799
:101B1000F7D42078000724D5E0690028686A10D03F
:101B2000304300E008E16862FFF7AEFD074604E0DD
:101B3000FFF7AAFDC01B022899D8686A8007F7D56D
:101B40000FE0400840006862FFF79EFD074605E091
:101B50009DE0FFF799FDC01B022888D8686A8007BE
:101B6000F7D4207804274007002860DA002001908D
:101B7000E869C00008D4E969B8060143E961E96988
:101B800001400120009101906D480168C90511D400
:101B90000168821511430160FFF776FD009005E0B2
:101BA000FFF772FD0099401A642870D864480068F5
:101BB000C005F5D5A06801280AD0002801D0052865
:101BC00010D0286A400840002862286AB84301E023
:101BD000286A30432862A068002812D0FFF754FD1D
:101BE00000900AE0286A38432862F1E7FFF74CFDCD
:101BF0000099411A5348814249D8286A8007F5D58F
:101C00000DE0FFF741FD009006E0FFF73DFD009974
:101C1000411A4C4881423AD8286A8007F5D4019885
:101C2000002804D0E969012000078143E961207898
:101C3000C00635D5606901280CD0401D686B23D0E3
:101C400038436863686B400840006863FFF71CFD19
:101C5000064622E0686B38436863686B304368630C
:101C6000FFF712FD064604E0FFF70EFD801B022879
:101C70005BD8686B8007F7D5686BF8218843A1694A
:101C8000C900084368630BE0B8436863F4E74CE0BD
:101C9000FFF7FAFC801B022847D8686B8007F7D44F
:101CA000206A002846D069680907890F022943D0B5
:101CB000012636060228286805D0B0432860FFF7C1
:101CC000E3FC044633E0B0432860FFF7DDFC074641
:101CD00004E0FFF7D9FCC01B022826D82868800141
:101CE000F7D4E86AE16A000900010843E862616A22
:101CF000A06A084369683D22120491430843686062
:101D0000286830432860FFF7BFFC044604E0FFF773
:101D1000BBFC001B022808D828688001F7D509E021
:101D2000FFF7B2FC001B022801D90320FEBD286882
:101D30008001F5D40020FEBD0120FEBD0010024050
:101D40000070004088130000094910B5401E884209
:101D500001D9012010BD074C60610321081F01F06B
:101D600049F90020A06107202061002010BD00007B
:101D7000FFFFFF0000E000E07047704770B50346CA
:101D800020331A7F012A27D001241C7702225A7798
:101D90000326CA683602B2438E6800253243A60283
:101DA000B2434E6800683243E602B2430E683243E3
:101DB0002603B2430E6932436603B2434E69896912
:101DC0003243A603B2430A43E603B2430A434264E2
:101DD0005C771D77002070BD022070BD70B5024693
:101DE0002032137F012B1BD0012313770224547759
:101DF000046865687026B5436560046865680E68A8
:101E0000354365600468A5688026B543A560006811
:101E1000846849680C43846053770020107770BD54
:101E2000022070BD70B5040005D025462035687FBE
:101E3000002802D006E0012070BD0020287720464F
:101E400000F00AF802206877211D206801F0DAFB13
:101E500001206877002070BD08B5104A016810485D
:101E6000914207D18269C1140A43826180690840A6
:101E7000009008BD0B4A9142FBD1C26902210A437E
:101E8000C261C06900220840009011461020FFF78F
:101E900049FC1020FFF73CFC08BD0000002C01406D
:101EA00000100240000400400268D36801210B4387
:101EB000D360006802680A43026000207047F8B5EA
:101EC000054604462035287F012817D001272F77A3
:101ED00002206877226890687726FF23B0431B02B0
:101EE000984390600868502837D00EDC202857D0DF
:101EF00006DC00284ED0102840D14EE00220F8BD6C
:101F0000302850D0402839D13CE060282DD07028AE
:101F100017D001221203801A0ED090422ED1CB6826
:101F20004A688968206801F0C2FB20688168012244
:101F300092031143816021E020688168C908C900CB
:101F4000F8E7CB684A688968206801F0B0FB21682F
:101F50008868B0433043886010E0CA6849682068E8
:101F600001F0B4FC5021206806E0CA684968206886
:101F700001F0BDFC6021206801F0A4FB6F77002018
:101F80002877F8BDCA684968206801F09FFC4021A5
:101F90002068F1E700212068EEE710212068EBE7D8
:101FA00020212068E8E730212068E5E7704770B518
:101FB0000446006801690025C9438907002915DB2B
:101FC000C168C943890711D4E91E01610120207746
:101FD000206880698007204602D0FFF7E7FF04E011
:101FE00000F0BEF8204600F03FF92577206801692F
:101FF000C943490717D4C168C943490713D4042109
:10200000C943016102202077206880698005800F24
:10201000204602D0FFF7CAFF04E000F0A1F82046F6
:1020200000F022F9257720680169C943090716D411
:10203000C168C943090712D40821C94301610420BA
:1020400020772068C0698007204602D0FFF7AEFFE6
:1020500004E000F085F8204600F006F925772068B6
:102060000169C943C90617D4C168C943C90613D455
:102070001021C9430161082020772068C0698005CC
:10208000800F204602D0FFF791FF04E000F068F8CF
:10209000204600F0E9F8257720680169C943C9079F
:1020A00008D1C168C943C90704D1891E016120460E
:1020B00000F03EF920680169C943090609D4C168E6
:1020C000C943090605D48021C94301612046FFF7B1
:1020D00053FE20680169C943490609D4C168C94350
:1020E000490605D44021C9430161204600F056F954
:1020F00020680169C943890609D4C168C9438906B2
:1021000005D42021C94301612046FFF736FE70BD8A
:1021100010B586B0044614216846FEF73DF80E4916
:102120002068884215D10D484269012149040A43BB
:102130004261406908400590481200900020022149
:10214000029003900191049109206946C006FFF7AF
:10215000EBF906B010BD0000002C01400010024059
:102160007047F8B5064604462036307F0D460128F4
:102170000DD001203077022070770427002A08D084
:10218000042A16D0082A2AD00C2A4DD137E0022082
:10219000F8BD206801F09EFA206881690822114389
:1021A000816120688169B9438161206881692A69F8
:1021B00012E0206801F0D2FA206882690121C90288
:1021C0000A43826120688169012292029143816100
:1021D000206881692A6912021143816124E0206824
:1021E00001F0FCFA2068C26908210A43C261206834
:1021F000C169B943C1612068C1692A6912E02068D8
:1022000001F02EFB2068C1690122D2021143C16195
:102210002068C269012189028A43C2612068C169BC
:102220002A6912021143C1610120707700203077C2
:10223000F8BD70B5040005D025462035687F00281C
:1022400002D006E0012070BD00202877204600F073
:102250000AF802206877211D206801F0D3F90120D7
:102260006877002070BD70477047000010B50446C5
:102270000068012201F010FA0C482168814208D060
:102280000B48814205D00B48814202D00A48814266
:1022900004D1486C0122D2031043486420680168CD
:1022A000012211430160002010BD0000002C0140FC
:1022B00000400140004401400048014030B5044660
:1022C0000068002201F0E8F9154A144821689310CB
:1022D000814208D01348814205D01348814202D080
:1022E000124881420AD1086A104207D1086A18428E
:1022F00004D1486C0125ED03A84348642068016AB5
:10230000114206D1016A194203D101684908490006
:102310000160012020346077002030BD002C014096
:1023200011110000004001400044014000480140FC
:1023300070B500681649884228D1164CE068401CE8
:10234000E0600A21E068FDF7D3FE0125002900D1F5
:1023500065701E21E068FDF7CBFE002900D1A57055
:102360006421E068FDF7C4FE002900D1E5707D21FD
:10237000C900E068FDF7BCFE002900D12571E068C6
:102380000549884202D125700020E06070BD000040
:1023900000040040D00100208813000070477047FF
:1023A00070470000F8B503680446D8691968050746
:1023B0002D0F07D1820605D58A0603D5204601F0E8
:1023C000D9FBF8BD9A68002D64D0D507ED0FFF2624
:1023D00021360E402E435DD0C60706D0CE0504D56B
:1023E00001261E62E36E3343E36687070223042659
:1023F000002F06DAD70704D027683B62E76E374321
:10240000E766470706D5D20704D022681662E26E57
:102410001A43E266020709D520220A402A4305D062
:10242000236808221A62E36E1343E366E26E002A11
:10243000C7D0800604D5880602D5204601F09AFB55
:10244000E06E000703D42068806840061CD5204653
:1024500001F06BFB20688168490611D58168402234
:1024600091438160606E00280AD01A494163606E12
:10247000FEF778FF0028A4D0606E416B8847F8BD56
:102480002046FFF78DFFF8BD2046FFF789FF0020AB
:10249000E066F8BDC5020DD552020BD5012000053E
:1024A0001862202120466030417281722046FFF779
:1024B00076FFF8BD020605D50A0603D5204601F0D1
:1024C0002FFCF8BD4006FCD54806FAD5204601F0A1
:1024D0003BFBF8BD493A000870B5040005D025461D
:1024E0006035687A002802D006E0012070BD002027
:1024F0002872204600F026F82420687220680168BF
:10250000490849000160204601F072FB0128EDD026
:10251000606A002802D0204601F0FCF9206841687A
:102520000922D20291434160206881682A229143A6
:10253000816020680168012211430160204601F09A
:102540004FFA70BDF0B587B0064614216846FDF716
:1025500023FE2B49306888424FD12A4882690121E5
:1025600089030A43826182690A400592426909012E
:102570000A4342614069002408400590C020009051
:1025800002200190032003900294694604941E489F
:10259000FEF7CAFF1E4D1D48286010208027291D08
:1025A00091C12C616C61AC612846EC61FEF74CFF77
:1025B000002801D0FEF7DCFB35666E621348144D2F
:1025C0001430443511C52C60AC60EC606F60202085
:1025D0006C61286128460838083DFEF735FF002861
:1025E00001D0FEF7C5FB7566002211461B206E6206
:1025F000FFF798F81B20FFF78BF807B0F0BD00003D
:102600000038014000100240000400481C00024055
:1026100034110020F8B5054604466035A87A202814
:1026200041D100290BD0002A09D00123A0681B0347
:10263000984206D12069002803D1C80701D00120A3
:10264000F8BD287A01282ED0012028725820616513
:1026500002530026E6662220A872616E1348886243
:10266000616E1348C862616E12480863606E13465B
:102670004663676D21683A462431606EFEF710FFAD
:102680002E7220680168FF22013211430160206828
:1026900081680122114381602068816840221143D2
:1026A00081600020F8BD0220F8BD0000A73A0008B4
:1026B000E73A00085D3A000830B5174842781749F4
:1026C000C379CA54027A521C0272C279521CC27176
:1026D000047901220023002C447805D08471037111
:1026E0004479A52C03D005E044710271F8E785799F
:1026F0005A2D04D08579A52D09D15A2C07D1022451
:10270000C471A5250D705A254D7004728370C1796E
:10271000092900D3027030BD28010020B408002030
:1027200070470000F8B5054604466035687A2028F1
:102730003BD100290BD0002A09D00123A0681B033C
:10274000984206D12069002803D1C80701D0012092
:10275000F8BD287A012828D0012028722046403070
:10276000E164028242820026E66621206872216EC0
:102770000F488862216E0F48C862216E0E480863B8
:10278000206E134646632768E16C3A462832206E75
:10279000FEF786FE2168402008622E72206881685C
:1027A0008022114381600020F8BD0220F8BD0000A6
:1027B000F13A0008213B00085D3A00087047704775
:1027C000F8B5604F604B3946002008395F4D1A68F4
:1027D00001248600BE59964207D10E5C002E1ED001
:1027E00000260E545A4E2C703470401C0828F0DB22
:1027F000584F00265448314600682431884210D191
:1028000081B2388880B201F0E3FC5349B2008852AB
:102810005249701C0A7890420CDD08700AE00126CB
:10282000DFE731464831884204D14B49B20038884D
:1028300051184880761C242EDCDB4348414A00684E
:1028400000260C3A4649232844D016DC0C282ED00A
:1028500008DC09284AD00A2844D00B281ED1414858
:10286000047018E0132869D0202856D0222815D1EA
:10287000386801282CD0042030E0DD2822D00EDC7E
:10288000912855D0922856D0942807D1287800282E
:1028900004D135480670547000F0CEFBF8BDDE2838
:1028A00012D0FF381A28F9D13878304948E0287812
:1028B000012802D1547000F0BFFB2D4806702D484E
:1028C000067003E02B4800E0294804702E70F8BD24
:1028D000032003E03868012802D002200870F5E7E1
:1028E0000C70F3E72449388808800AE00920396829
:1028F000C006224D012907D000221021FEF7BDFE9F
:102900002E7013480470F8BD01221021FEF7B5FEA9
:102910006420FEF7FAFD2C70F3E7396818480129A6
:1029200001D00670F8BD0470164802F047F8F8BDF3
:102930003878154904E03878144901E038781449AA
:102940000870F8BD7001002034010020BE00002096
:10295000220100203801002004020020BC000020D9
:10296000BB00002000000020BD000020C1000020AE
:10297000200100202101002024010020230100204B
:10298000E5010020AF040000B9000020BA000020DB
:10299000E4010020FEE70000F8B5114D00240F4EC1
:1029A0002F460837285D012812D0A000305800219A
:1029B00000F006FD285D3855641C082CF2DB094840
:1029C0000088002808D00121092000F0F9FCF8BD9A
:1029D000A00030580121EBE70021F5E7700100204D
:1029E000080000202601002010B51149114A0C787A
:1029F000D368002817D0012814D19078032811D16A
:102A0000107802280ED1002090800881641CE0B26A
:102A100008708A78904208D880001A5C0A71C01841
:102A20004088C88010BDA000F7E700F041FD10BD50
:102A3000A80F0020EC01002003484068002801D0C6
:102A40000020704701207047C00100200348406803
:102A5000652801D00020704701207047C001002088
:102A6000F0B589B0002000904848017801297DD157
:102A700000270770C66A856A3C464548E100411850
:102A800003C9FDF729FE2A463346FDF78DFDFDF704
:102A900083FE3F49A2001831641C8850032CECDBF4
:102AA000084600883B4A83B23B490A2001F0ECF912
:102AB000364922310880092800D80F803348002485
:102AC000223000880790FDF7F9FD02910190334A0A
:102AD000E300D3180CCB0299FDF766FD054630489C
:102AE0000E46005DFDF7EAFD2A463346FDF7F4FC8D
:102AF000FDF7ACFE2649A2004C31885001460098F3
:102B0000FDF755FB641C0090082C01DA0198DEE704
:102B1000FDF709FE1D4D86B2223522486E800088E1
:102B2000FDF7CCFD0022204BFDF73EFD02460B4693
:102B30001E481F49FDF738FDFDF788FE134C1D495F
:102B4000A0610190FDF78CFBFDF7EDFD0006000E86
:102B500014D00798FDF7ABFD0199FDF7BEFBFDF71B
:102B6000E2FD80B2A880FDF7A2FD00E00BE0009935
:102B7000FDF71DFBFDF7D7FD608101E0AF806681A9
:102B800001206070A07009B0F0BD0000900100202D
:102B9000B00A00201800002068000020E00000209B
:102BA000080000202601002000408F409A99999942
:102BB00099990B400000C84270B5364C207800252A
:102BC000012844D12570E088401CE08001F0FEFD22
:102BD000FFF7E2FE01F012FE01002F4803D12F495A
:102BE0000988002905D001221021FEF746FD258124
:102BF0000CE021892D22491C89B2120121819142C8
:102C000004D1258100221021FEF737FDFEF7B2F82E
:102C1000E08803210646FDF76BFA002901D1012067
:102C20002061F0070BD1FDF7D5FF1D48007801F0BA
:102C300051FB1C480078012801D101F09BFB00F0FA
:102C400045FCE0884B210901884200D1E5802079CC
:102C5000012804D12571FEF737F801F0CFFCE078A8
:102C6000012802D1E57001F06FFCA078012803D1A2
:102C7000A57001F011FE65716078012809D16570B9
:102C800001F0A2FE084C2078012802D101F082FA5E
:102C9000257070BDD00100200008004826010020EA
:102CA000E401002022010020920100200EB5002145
:102CB0002148009101911F4A029102605205426031
:102CC0008160012208230C300EC0016041608160E8
:102CD000C160C021016182619102C2614161183805
:102CE000FEF7E4F9002801D0FEF742F80A20009030
:102CF0000120000301900620029069460E48FEF76D
:102D0000D1F8002801D0FEF733F80B200090694677
:102D10000948FEF7C7F8002801D0FEF729F80C2073
:102D2000009069460448FEF7BDF8002801D0FEF780
:102D30001FF80EBD00240140B40F002008B50C4858
:102D40004169012211434161406902211040009014
:102D500000220920FEF7E6FC0920FEF7D9FC00223C
:102D600011460A20FEF7DEFC0A20FEF7D1FC08BD62
:102D700000100240F0B587B014216846FDF70CFA48
:102D8000364842690121C9040A43426142690A4046
:102D90000592426989100A43426142690A400592DC
:102DA000426949010A43426142690A400592426907
:102DB00009110A4342614069294C084005900022EC
:102DC00021462848FEF759FC0927FF060022132157
:102DD0003846FEF752FC002230212348FEF74DFC16
:102DE00000940126022500240196029569461D489B
:102DF0000394FEF799FB1320009069460196029513
:102E000003943846FEF790FB302000906946019607
:102E1000029503941448FEF787FB14486A4631C2B2
:102E200069461348FEF780FB072040026A4631C21C
:102E300069463846FEF778FBC0206A4631C26946CB
:102E40000948FEF771FB072080026A4631C26946D5
:102E50000448FEF769FB07B0F0BD00000010024017
:102E600018E30000000800480014004830C30000C8
:102E70000004004810B594B000240E940F941094F0
:102E8000119412941C2168461394FDF785F91C21B6
:102E900007A8FDF781F92B48294901602F2184609B
:102EA00041600461446128498461C160FEF7BAFF52
:102EB000002801D0FDF75CFF012000030E900EA951
:102EC0002048FEF7FCFF002801D0FDF751FF1D4808
:102ED000FFF7AFF9002801D0FDF74AFF129412A9BD
:102EE00018481394FEF77AFF002801D0FDF740FF41
:102EF00060200594019400900294039404940022AD
:102F0000694606940F48FFF72CF9002801D0FDF719
:102F10002FFF01200794400308940C9009940A9411
:102F20000B9407A90D940748FEF728FF002801D04D
:102F3000FDF71EFF0348FFF7EBF814B010BD0000CB
:102F4000002C014044100020E703000010B586B0BB
:102F500000240094174801940294039404941449A3
:102F6000059401602F2184604160046163218461C4
:102F7000C160FEF757FF002801D0FDF7F9FE0120E0
:102F80000003009069460B48FEF799FF002801D026
:102F9000FDF7EEFE202004A911C106480839FEF70E
:102FA0001DFF002801D0FDF7E3FE06B010BD0000B4
:102FB000000400408410002010B50C480A4901604C
:102FC000E1214902416000218160C16001618161AC
:102FD000C1610C22016242614162FFF77DFA002863
:102FE00001D0FDF7C5FE10BD00380140C41000201F
:102FF000704700008307FF22DB0E9A408907090E05
:10300000994000280BDA0007000F083883080848A9
:103010009B001818C36993430B43C361704783082F
:1030200004489B001B1818689043084318607047B9
:1030300000ED00E000E400E0044901200870044ACB
:103040000021117003490870704700000000002043
:10305000BD00002022010020F7B50A4684B00446D6
:1030600010460699FDF7F4F8009020680099FDF7E6
:10307000F7F80290A16A0098FDF799F8054600213B
:10308000C9436068FDF767F9216AFDF7E9F8294649
:10309000FDF7E6F8616AFDF78AF86062E169FDF71D
:1030A000FBFB01D2E06905E0A169606AFDF7EAFB7C
:1030B00001D2A06960620121E068FDF74CF901903E
:1030C000276A3946FDF773F80646216B0698FDF727
:1030D000BFF805460121A068FDF73DF92946FDF737
:1030E000BFF8054639460198FDF7B6F8E16AFDF7E5
:1030F000B7F82946FDF7ACF83146FDF7EEF8E06287
:103100000546616A0298FDF752F82946FDF74FF827
:1031100060636169FDF7C0FB01D2606905E0216968
:10312000606BFDF7AFFB01D2206960630098A0627D
:1031300006982063606B07B0F0BD000001490220D3
:1031400088707047EC0100207047000070B500F0F7
:103150004DF81D4801780024012902D1047000F0C7
:1031600049F9FFF729FDFFF77BFC18480178012991
:1031700002D1047000F068FF15480588002D20D0AA
:103180001448007801281CD113480078002818D171
:1031900012480178012914D1047011480088FDF704
:1031A00086FA04462846FDF782FA014622460D4873
:1031B000FFF752FFFDF7B7FA0B49488000B201F064
:1031C0005FFC00F0BDF870BD2801002091010020D7
:1031D000C8000020BD000020BE0000209301002098
:1031E0009A010020280B002000000020F8B550486C
:1031F000504D0078504F01280BD00020295C012948
:103200003DD0030000F00FFE08535A626A717981C5
:10321000898F0024264607E0230000F004FE0805FD
:103220000D101D2024282C16002210214248FEF7E4
:1032300024FA01277F0308E00022022101E0002296
:1032400001210920C006FEF718FA2E55641C072C30
:10325000E2DD37480670F8BD0022082109E00022AF
:103260000121C90305E000220121890301E00022B8
:1032700039463248E7E7002220212F48E3E70300E0
:1032800000F0D1FD080507090B0D0F1113510122A4
:103290000EE0012213E0012219E001221FE00122C9
:1032A00024E001222AE0012230E0012236E000225F
:1032B00010213846FEF7E1F901209FE7002209209E
:1032C0000221C006FEF7D9F9022097E70022092063
:1032D0000121C006FEF7D1F903208FE70022082163
:1032E0001648FEF7CAF9042088E700220121C90325
:1032F0001248FEF7C2F9052080E700220121890368
:103300000E48FEF7BAF9062078E7002201214903AA
:103310000A48FEF7B2F9072070E70022202138465C
:10332000FEF7ABF9F8BD401C0728C6DDF8BD00006C
:103330000000002068010020001400480008004838
:10334000F8B50020174E184F184D0446230000F022
:103350006AFD0805081517191C1F230D01214902D4
:1033600001E0FF2101313046FEF782F9002816D036
:1033700000212955641C072CE8DDF8BD2021F2E767
:103380001021F0E70121090304E00121C90201E055
:10339000012189023846E7E780210548E4E7012159
:1033A000E7E700000004004800080048080000208B
:1033B000001400480149032088707047EC01002088
:1033C00070B5094A0446137809345B1CDBB2002C43
:1033D00006D0C41D04D0054D44002C5F8C4202D0A1
:1033E0001370FDF793FC70BDD5010020300900205B
:1033F0007047000030B52248C1B0017A08293DD994
:10340000002181701F4A8178515CA52936D1017A4B
:10341000491E01728178491C81708178515C5A295A
:103420002CD1017A491E01728178491C8170817802
:10343000535C017A491E01728178491C8170002118
:103440006C4609E08578555D6554057A6D1E0572F8
:1034500085786D1C8570491C9942F3DB6178A278F0
:10346000090289182279130262799A180261C160EF
:103470000069054A49005052FFF7A2F941B030BD3A
:1034800028010020B40800203009002000B5064BB8
:10349000DA60064A50701070917000205870032155
:1034A0009970FFF7A1FA00BDEC010020A80F0020E1
:1034B000044902208870002088800349088108712F
:1034C000C8807047EC010020A80F0020F8B5154C0B
:1034D000154962780F4600209037012A05D0A08058
:1034E000A27852008852B852F8BDA2884B231B0123
:1034F0009A4201D0002A11D1A080A578482D0BD284
:103500000A486E0000888853094903C9FDF744F949
:10351000B8536D1CA57001E04920A070A088401C24
:10352000A080F8BDE4010020880E00209801002052
:10353000D80A002010B5FEF7ADF810BD70B596B0F2
:1035400030216846FCF728FE00240C940D940E945C
:10355000142110A80F94FCF71FFE102009940225D7
:103560000490052001260095C00403960A90089552
:103570000B946846FEF73EFA07200C900E9401214A
:103580000D950F940CA8FEF74DF910A81096129403
:10359000FEF7CCF816B070BD134801680122114344
:1035A00001604168114A114041600168104A1140B0
:1035B00001600168012292049143016041683F2249
:1035C000120491434160C16A09090901C162016B9A
:1035D000FF22543291430163416B49084900416322
:1035E0000021816070470000001002400CB8FFF815
:1035F000FFFFF6FE10B50248FEF7D9FC10BD000033
:1036000084100020F0B502681D4B0124A4071D4D55
:10361000984203D0A04201D0A84203D17026B24301
:103620004E683243184E194F98420DD0A0420BD02D
:10363000A84209D0164CA04206D0B04204D0B842ED
:1036400002D0144CA04204D103242402A243CC682B
:1036500022438024A2434C69224302608A68C262EA
:103660000A688262984206D0B04204D0B84202D0C2
:10367000084A904201D10969016301214161F0BD0D
:10368000002C014000040040004001400044014083
:10369000002000400048014010B50123046A8B401F
:1036A0009C430462036A8A401343036210BD30B531
:1036B0008468FF252D021B021343AC430B432343B5
:1036C000836030BD826870239A430A4307210A430E
:1036D00082607047F0B5026A520852000262056AC1
:1036E000436882697024A24392080C6892001443D4
:1036F000022295438A68164E2A43144DA84207D0E9
:10370000B04205D0134FB84202D0134FB84206D191
:103710000827BA43CF681743042297433A46A84282
:1037200007D0B04205D00B4DA84202D00A4DA842A6
:1037300006D103252D02AB434D691D438B692B43F5
:1037400043608461496841630262F0BD002C01401E
:1037500000400140004401400048014070B5026A49
:1037600010239A430262056A426883697324240223
:10377000A3430C6824021C4320239D438B681B0138
:103780002B43124DA84208D11D46CB688026B54375
:103790001B012B434025AB4308E00D4DA84205D04B
:1037A0000C4DA84202D00C4DA84208D10325AD0211
:1037B000AA434D69AD0015438A6992002A434260CD
:1037C000846149688163036270BD0000002C014080
:1037D00000400140004401400048014070B5026AC9
:1037E000FF2301339A430262056A4368C269702469
:1037F000A24392080C68920014430122520295439E
:103800008A6812022A43124DA84208D11546CA6896
:10381000C614B54312022A430515AA4308E00D4D0C
:10382000A84205D00C4DA84202D00C4DA84208D1A8
:1038300003252D03AB434D692D011D438B691B01EE
:103840002B434360C4614968C163026270BD0000DC
:10385000002C01400040014000440140004801406C
:1038600030B5026A01231B039A430262046A42686C
:10387000C36973252D02AB430D682D021D4301233F
:103880005B039C438B681B0323430C4CA04208D072
:103890000B4CA04205D00B4CA04202D00A4CA042D7
:1038A00005D10124A403A2434C69A4012243426030
:1038B000C56149680164036230BD0000002C01400D
:1038C00000400140004401400048014030B5036A17
:1038D000046A6408640004628469F025AC43120140
:1038E00022430A24A3430B438261036230BD30B5F7
:1038F000036A1024A34303628469036A0F252D031E
:103900001203AC432243A024A3430901194382615B
:10391000016230BD10B5818CC90707D001684A68C3
:1039200001235B049A43836A1A434A60818C8907A6
:1039300007D501684A6801231B049A43C36A1A43E6
:103940004A60818C490707D501684A6801239B04B6
:103950009A43036B1A434A60818C090707D50168B3
:103960004A680123DB039A43436B1A434A60818C04
:10397000C90607D50268916801231B039943836B2D
:1039800019439160818C890607D501688A680123F3
:103990005B039A43C36B1A438A60818C490612D534
:1039A00003685A6801210905046C8A4322435A605E
:1039B000026C8A4207D10268516803235B05994370
:1039C000436C19435160818C090607D501684A6828
:1039D0000123DB04806C9A4302434A6010BD00005F
:1039E000F8B500260446C666FDF74EFE05461449A6
:1039F000206888421DD10068124F000709D50121B7
:103A00002B46002249052046009700F0BCF900280B
:103A10000DD12068006840070BD501212B460022FC
:103A200089052046009700F0AEF9002801D0032058
:103A3000F8BD202060346072A07226720020F8BDAC
:103A400000380140FFFFFF0110B5406A0022014627
:103A500040314A834A82FEF7A3FC10BD70B5446A28
:103A600025466035687A0026212808D120688068BC
:103A7000000604D552200653204600F072F8A87ABA
:103A8000222808D120688068400604D55A200653B1
:103A9000204600F04AF8E06E10210843E066204618
:103AA000FEF77EFC70BD10B501460968406A0968E2
:103AB000890615D400225A210A5201680A68FF2398
:103AC00001339A430A6001688A68520852008A608A
:103AD00001688A6840239A438A6020226A210A5436
:103AE000FEF7EAFD10BD10B5406AFEF719FE10BDE5
:103AF00010B501460968406A096889060DD400229C
:103B000052210A5201688A6880239A438A600068B9
:103B1000016840221143016010BDFEF74FFE10BD49
:103B200010B5406AFEF74BFE10BD01680A68FF231E
:103B300021339A430A6001688A68520852008A60F9
:103B4000202160308172704710B501680A684023F7
:103B50009A430A60202269210A54FEF72FFE0020B2
:103B600010BD01680A68C0239A430A6020216030B2
:103B70004172704770B50246403203466033948B01
:103B80009D7A0168222D05D088690822104388613A
:103B9000022070BD898C012685683603B54202D1AA
:103BA0000569002D0BD02140446D651C45652170D1
:103BB000518B491E0904090C518307D015E0456D4E
:103BC00021402980416D891C4165F1E701680A683F
:103BD000FF242134A2430A6001688A685208520017
:103BE0008A6020219972FEF767FD002070BD0000F9
:103BF000F8B504462369A268E5691A436369102091
:103C00002B43002125681A432B680E463E4F3B404C
:103C100013432B6023685A6803252D03AA43E568E4
:103C20002A435A60236AA26925681A43AB680B27A6
:103C30003F02BB431343AB60344A2568954210D121
:103C4000334A126B9207920F0ED0012A05D0022A36
:103C500005D0032A09D1022007E0042005E008204E
:103C600003E02C4A954200D100200122E369D203EF
:103C7000934224D100280CD002280DD0042813D060
:103C8000082817D001260A0912010807400F10431F
:103C90002FE0FDF763FE09E061681F4A48088018BD
:103CA000FCF726FA81B2EEE7FDF768FE6168400096
:103CB0004A08F4E76168012248081204EFE7002887
:103CC00008D0022809D004280BD0082814D00126D7
:103CD0003046F8BDFDF742FE05E061680F4A48082E
:103CE0000CE0FDF74BFE61684A088018FCF700FA0B
:103CF00080B22168C860EBE7616848088018FCF76B
:103D0000F7F980B2E860E3E7F369FFFF00380140AC
:103D100000100240004400400024F40000127A0029
:103D20006921095C212901D00220704702464032F6
:103D3000518A002912D0012381681B03994202D1C4
:103D40000169002915D0C16C4B1CC3640068097857
:103D50000185508A401E50820020704701680A6821
:103D600080239A430A600068016840221143016081
:103D7000F2E7C16C03680988C905C90D1985C16CD2
:103D8000891CC164E5E7FFB581B017460E460446BD
:103D90000A9D1DE0681C1BD0002D05D0FDF774FCAA
:103DA0000499401AA84213D920680168FF22A13261
:103DB00091430160206881684908490081602020A2
:103DC00060346072A07200202072032005B0F0BD44
:103DD0002068C1693046884304D00020B842D9D059
:103DE0000020F3E70120F9E710B50248FEF7DAFA00
:103DF00010BD0000C41000202021020C01D01021B1
:103E00001046020A01D010460839020901D01046B6
:103E1000091F820801D01046891E420801D0881E61
:103E20007047081A704730B47446641E2578641CC5
:103E3000AB4200D21D46635D5B00E31830BC1847FF
:103E400002E008C8121F08C1002AFAD17047704763
:103E5000002001E001C1121F002AFBD170470000C1
:103E600010B5074A07490020135C0C5CA34201D03F
:103E7000002010BD401C0828F6DB012010BD00000A
:103E80000800002068010020FFB58DB00D98144691
:103E9000C00009900E461846FCF710FC0090002068
:103EA0000890019184CC0998083C001901460292BF
:103EB000803980388D6FC06F03903B460199009820
:103EC000FCF79CFC05D803CE3B46029AFCF76CFB42
:103ED00064E02A46039B01990098FCF7A3FC0FD8E5
:103EE00009982A468119084680388039806FC96F41
:103EF000039BFCF759FB02460B460199009851E0E1
:103F00000D9F01257F1E0DE0EA00A3180CCB01993F
:103F10000098FCF773FC03D86D1EE8B2089004E02B
:103F20006D1CEDB2BD42EFDD0898C700E0190CC86A
:103F3000F11904930A9203C9FCF736FB039102902E
:103F40003919CD688C68B8198168C6680846224658
:103F50002B463146FCF728FB039B029AFCF7ADFA8F
:103F600005910A9E049F06902046294632463B460C
:103F7000FCF7A3FA0D46044632463B4601990098E9
:103F8000FCF79BFA22462B46FCF70EFB059B069A94
:103F9000FCF7A2FA039B029AFCF7EAF902460B46E9
:103FA00001990098FCF798FAFCF7F6FB80B211B083
:103FB000F0BD000070B50C4C05000CD000F01AF8F4
:103FC00000F0ACF8284600F095F800F0A9F96082FE
:103FD00000F0CEFB70BD0549012008700021E18191
:103FE0000349087070BD0000B800002000000020E8
:103FF00022010020F8B511480024114E114F00880D
:10400000FCF75CFB05460091E200B3180CCB284698
:104010000099FCF7C9FAFCF719FCA100641C785060
:10402000082CF1DB064C2846283C0099636A226A7A
:10403000FCF7BAFAFCF70AFC6061F8BDB201002097
:10404000E000002094020020FEB5FFF709FF274999
:10405000012808D08889401C80B28881CA89904292
:1040600000D9C881FEBD214C0020214A22344300E2
:10407000E55A8300D658401CAD19D5500328F6DB0D
:104080001A4843894169C918416101910179491C64
:10409000C9B2017100910A2924D100240846FCF715
:1040A0000DFB0E4605461248A700C059FCF706FB5B
:1040B0002A463346FCF778FA0D4AE300183AD2183C
:1040C00003C200200A49641CC851032CEBDB074CD7
:1040D00000990198FCF70CF820810120E070002085
:1040E00060612071014900208881FEBD900100209F
:1040F000F00A0020F8B5074E074F0546002460007F
:10410000305A281AFCF7C8FAA100641C7850FF2C1A
:10411000F5DDF8BDB4020020B4040020F8B50F4F5F
:1041200000240026354620462841C007C00FFCF772
:10413000BEFAA9007958FCF793F83146FCF737F836
:104140006D1C0646082DEEDBFCF7EDFA034A610014
:104150002032641C5052FF2CE3DDF8BD9402002095
:1041600000B50B484178012900D80121C17181783F
:104170000279914201D8017200E00272017AC0799D
:10418000814204D202490831481E00F031FB00BDD3
:10419000B800002010B50B480B4C0088617A8842AB
:1041A0000DD2207B401CC0B22073032806D1FEF73D
:1041B00043FF0649012008700420E07010BD002074
:1041C000207310BDB2010020B8000020650100205E
:1041D000F3B5002083B0254F044600900098FCF70B
:1041E0006DFA0546E0000E463918019003C9002219
:1041F0001F4BFCF771F92A463346FCF713FB0AD232
:1042000001980022391803C9194BFCF765F9FCF72E
:10421000C3FA80B20090641C082CDFDB0098FCF726
:104220004DFA0D461349044603C90022104BFCF712
:1042300053F922462B46FCF7B7F9FCF7ADFA82B2E8
:1042400008200399C0438A4201D9002402E0C8290A
:1042500008D9C8249621FFF7B3F821460498FFF740
:10426000AFF800E00C46204605B0F0BDE0000020AD
:1042700000005940D80A002070B512498200124C43
:104280008D58A561FCF713FAE06110492846FBF749
:10429000E7FFFCF72FFA002810D028466169FCF7E9
:1042A0001CF80B49FBF7DCFFFCF73DFA80B27D21DF
:1042B000C900E081884200D9E18170BD0020E08121
:1042C00070BD0000B4040020B800002000002041B0
:1042D00000007A44F8B50026142506210F4F484304
:1042E0000446A0194000395A2846FFF769F8761CA1
:1042F0006D1CEDB2F6B2192DF3D9084F00261A2520
:10430000903FA0194000395A2846FFF759F8761C0B
:104310006D1CEDB2F6B21F2DF3D9F8BD180F0020B9
:10432000FEB50024114801940168114E00910F4818
:10433000A100405831460546FBF792FFFCF7DAF939
:10434000074631460098FBF78BFFFCF7D3F987420D
:1043500007DA2846FCF7CEF9002802DBA0B2009568
:104360000190641CFF2CE2DD0198FEBDB404002026
:104370000000C842F8B5FFF773FD002831D0214C8A
:104380000025257000F03AFA1F4F00282FD01F4853
:104390001F4E0078012803D03878012817D014E088
:1043A0006078012811D1608800280ED07D21C900D5
:1043B0004843FCF77CF9FCF70DFA0022154BFCF79B
:1043C000F3F8FCF7E9F980B203E0A5800AE01248AF
:1043D0000088A080002805D0706300210F48FDF7F9
:1043E00045FFF8BD00210D48FDF768FFF8BDA58029
:1043F00000210A48FDF762FF657009493D700320FE
:104400000870F8BD22010020BD000020BE00002081
:10441000002C014000C05340C60000204410002082
:1044200063010020F8B5214C0646002902D001297D
:1044300025D0FEE700256F00E05FB0421BD10021D0
:104440003046FEF7BDFF1A4A907802280ED3411E6F
:10445000A94202D10020E05306E040000019403894
:10446000C38FE3530023C387917004E0012802D176
:104470000020E05390706D1C202DDCDBF8BD0C4A51
:1044800091782029FAD200204300E35EB34201D1A3
:10449000002300E00123401C2028F5DB002BEDD099
:1044A00048002652491C9170F8BD0000560A0020B1
:1044B0006401002010B500210C48FDF7D7FE002054
:1044C0000B49012283005B18401C5A802428F9DB29
:1044D000482401212046FEF773FF641C6C2CF8DB96
:1044E00001219020FEF76CFF10BD00004410002059
:1044F00004020020FDF7D6F8FFF720F84B2000015A
:10450000FDF703F8FEF736FCFEF718FCFEF7CEFBCE
:10451000FEF7B0FCFEF71AFDFEF74EFD00F054FA70
:1045200000F038F80748FDF7BFFC0A20FCF7EDFF64
:1045300008206421C043FEF743FFFFF7BBFFFEF7EF
:1045400005FEFCE74410002070B5104A0020154617
:10455000183DC1006C1818CC511818C1401C032814
:10456000F7DB0B4CE088FCF7A9F8E162A0620020C1
:10457000C3000021EB180A4606C3401C0328F7DBE2
:104580000020E0800120207070BD0000B00A0020F3
:104590009001002010B50648FCF72CFC0548FDF7FB
:1045A00083FC032204490248FCF78CFE10BD000086
:1045B000B40F002084100020AC010020F0B50D499C
:1045C0000D4FC8883B46401CC8800020843B0949E9
:1045D00042001C31895A8200B950C4001A19166869
:1045E0005268CD0F71186A411C1906C4401C03287B
:1045F000EDDBF0BD900100201C0B0020F0B587B072
:1046000003A8FCF7EFFB03AB07CB6B4607C3FFF731
:10461000A7FD534CE178002978D0524F01260025A0
:10462000012960D00920C006022971D0032905D0D4
:10463000042969D1E07A012834D037E00122102121
:10464000FDF71BF86420FCF760FFE07A012803D136
:1046500000212320FEF7B4FE012060719526002181
:104660003046FEF7ADFE761CB92EF8DB0020C043C5
:10467000A072A571207A3C4A401EC1B2E079401E6A
:10468000C0B2FEF703FF03A8FCF7ACFB03AB07CBFC
:104690006B4607C3684600792082FFF78BFC012038
:1046A000387054E000212320FEF78AFE00212220EA
:1046B000FEF786FE0A20205600219530FFF7B2FE55
:1046C0006846007800219530FFF7ACFEFEF7F0FE5B
:1046D00025822846FFF76EFC24480670FEF7ACFCE6
:1046E0000420E0720FE0E07A032814D1FEF726FDE3
:1046F0001E480670FEF7A0FC667128462582FFF76B
:1047000059FC3E70E672E57007B0F0BD21E0FFE7AE
:10471000E17A012904D000212320FEF751FEF2E7BF
:1047200001221021FCF7A9FFC820FCF7EEFE6671FC
:10473000FEF740FE03A8FCF755FB03AB07CB6B4627
:1047400007C3684600792082FFF734FC3E700320DF
:10475000C7E7E07A0328D7D100F042F9D4E7000098
:10476000B800002022010020040200206501002082
:1047700070B50021084A01240B460546CD40ED07DF
:1047800001D0545400E05354491C0829F5DBFFF7CD
:1047900073FD0248047070BD6801002022010020F2
:1047A00000B50346FEF748F9002803D000210A4669
:1047B00006C300BD03488068C20003488158101832
:1047C0004268F5E7C0010020600B002010B50748E3
:1047D0004178012908D1002141700F20FEF7F0FD3A
:1047E00000212120FEF7ECFD10BD00006401002037
:1047F00002780B7803700A707047000005490020AA
:104800000A5C012A04D0401C0828F9DB002070470C
:104810000120704708000020F0B51D4AD568936854
:104820001C4AAB4209DB0BE0DC001659864203D17F
:10483000A41864688C4227D05B1CAB42F4DD25E0F1
:10484000AB4219DD002408E0E700D659864203D1C7
:10485000BE1876688E4217D0641CAC42F4DD08E0C6
:10486000DC001559854203D1A41864688C420BD032
:104870005B1C652BF4DB09E0DB00D458844205D1D6
:1048800098184068884201D10120F0BD0020F0BD99
:10489000C0010020600B0020F0B58DB0FEF7CCF811
:1048A00001284ED005A8FCF7E3F90598002848D068
:1048B00002460932A5263D4C5A21002A1DD0C21DB0
:1048C0008227002A25D0069B267061700521A170E1
:1048D0000212E770227160711D12A5714200E3712E
:1048E00033480699815207A8FFF75AFF0026314D39
:1048F000FEF7A2F8002826D04FE026706170032052
:10490000A0708020E070022020710698607106225D
:1049100013E0267061702D21A1700120E7702071D5
:10492000262224490620627114310A18203A927E08
:104930002254401C2D28F8D364221C491E48FDF740
:10494000F1FE0DB0F0BD07980146093125D0C01D1C
:1049500023D005A8FCF78CF9069A0292E978121286
:10496000059896468C46A522C90062545A22091918
:104970004A7005228A700312CF700B71487172461B
:104980008A71029ACA716146491C4200E97008485E
:104990000699761C8152062EAADBE8780349C200EC
:1049A0000548FDF7BFFE0120E870CAE7CC080020EB
:1049B0003009002028010020C41000200149C880CF
:1049C00070470000D001002010B5012202490348C1
:1049D000FDF720FE10BD000029010020C4100020BA
:1049E00030B587B003A8FCF7FDF903AB07CB6B46E6
:1049F00007C368461F4C0578207A1F49401E854230
:104A00001E4820560FDD8200511849886C30FEF791
:104A1000D7FC0A20205600219530FFF703FD042023
:104A2000E07007B030BD85421BD0421C0BD0820025
:104A3000511849886C30FEF7C3FC0A20205600212B
:104A40009530FFF7EFFC284695300121FFF7EAFC8F
:104A50000120607168460078A07268460079FFF70F
:104A6000A9FA684601890A2020566C30FEF7A8FC96
:104A7000D7E70000B8000020040200200A00000070
:104A8000F8B51E49214D0C881D4947198E8881B201
:104A90008C4605461B4901221B4B3235B44211D0CE
:104AA000174EB4807D26F600B04201D8604604E07F
:104AB000312F0DD9322D03D2002008801A70F8BD95
:104AC000204617E07D26F600B042EFD9312F01D8FD
:104AD0000E80F3E7322DEFD30D48094A01880848CC
:104AE0008C42C08802D9411A401801E0091A401AC4
:104AF00080B2D080FFF75EFAF8BD0000C800002049
:104B000000000020C60000202201002017FCFFFF4B
:104B10009A010020000000000000000001020304D0
:104B20000607080900000000010203044C4B0008BE
:104B30000000002004020000580A0008204C000871
:104B400004020020BC130000503E0008021C015467
:104B5000308E404B789E084B2CA1084BAAA2084BE4
:104B600028A4084B5AA5084BA4A8084BB0A9084B89
:104B700050AE085A9E085B8049084A59085B205D80
:104B8000105A5F101D6140CDCC014BDC61104B9081
:104B900064085B6065084A69081AA00824012404B7
:104BA00029BE1AFF0801122B9A9901182C0B40E11B
:104BB0007A14AE47E10A409EEFA7C64BB71540DD19
:104BC00024068195431B403108AC1C5AE41A408DE1
:104BD000976E1283C014406F06380ECA211640EC3F
:104BE00051B81E85EB0B4048394A147061196D2984
:104BF00070A10A142001E010496E7075742043758D
:104C00007272656E74203A29423202320329B93237
:104C10000532063207023B085AFF01013113127AAE
:04000005080000BD32
:00000001FF
